:020000040801F1
:1000000098BF0020E90E0108C33C0108C53C010867
:10001000C73C0108C93C0108CB3C010800000000B6
:10002000000000000000000000000000CD3C0108BE
:10003000CF3C010800000000FF0E0108D13C010880
:10004000030F0108030F0108030F0108030F010844
:10005000030F0108030F0108030F0108030F010834
:10006000030F0108030F0108030F0108030F010824
:10007000030F0108030F0108454401081F4401084C
:10008000030F0108030F0108030F0108030F010804
:10009000030F0108030F0108030F0108030F0108F4
:1000A000030F0108030F0108030F0108030F0108E4
:1000B000030F0108030F0108030F0108030F0108D4
:1000C000030F0108030F0108030F0108030F0108C4
:1000D000030F01088B430108030F0108030F0108F8
:1000E000030F0108030F0108030F0108030F0108A4
:1000F000030F0108030F0108030F0108030F010894
:10010000030F0108030F010897400108030F0108BE
:10011000030F0108030F01086F400108BF400108E9
:10012000030F0108030F0108030F0108030F010863
:10013000030F0108030F0108030F0108030F010853
:10014000030F0108030F0108030F0108030F010843
:10015000030F0108030F0108030F0108030F010833
:10016000030F0108030F0108030F0108030F010823
:10017000030F0108030F0108030F0108030F010813
:10018000030F0108030F0108030F0108030F010803
:10019000030F0108030F010800F002F800F075F8E2
:1001A0000AA090E8000C82448344AAF10107DA45D2
:1001B00001D100F06AF8AFF2090EBAE80F0013F0AF
:1001C000010F18BFFB1A43F00103184780F4000029
:1001D000A0F400000A444FF0000C10F8013B13F0AB
:1001E000070408BF10F8014B1D1108BF10F8015B90
:1001F000641E05D010F8016B641E01F8016BF9D183
:1002000013F0080F1EBF10F8014BAD1C0C1B09D1D9
:100210006D1E58BF01F801CBFAD505E014F8016B4B
:1002200001F8016B6D1EF9D59142D6D370470000DD
:100230000023002400250026103A28BF78C1FBD8EF
:10024000520728BF30C148BF0B60704767290EF0C6
:10025000F98464290AF08E8173290AF078860020D7
:1002600070471FB50EF0E1FC0AF0CCFE0400002040
:1002700000210DF057FD401C6060002000210DF0B2
:1002800067FDE0601FBD10B510BD0AF0EDFF11461F
:10029000FFF7E7FF03F0DAFC0BF088FA03B4FFF78F
:1002A000F2FF03BC0BF0B6FC2DE9F001CB78002285
:1002B00003F00F0C13F0100F1CBF8B7843EA0C0CEB
:1002C0000B784FF00F0613F0FF0F4FF0010518BF2A
:1002D000046819D00F8805FA02F31F409F420FD11E
:1002E000970006FA07F824EA08040CFA07F73C43DB
:1002F000CF78282F08BF436102D0482F08BF036181
:10030000521C082AE6D304600A88FF2A87BF446883
:100310000022BDE8F001704702F108030F8805FADA
:1003200003F31F409F420FD1970006FA07F824EA13
:1003300008040CFA07F73C43CF78282F08BF436125
:10034000CF78482F08BF0361521C082AE4D34460C9
:10035000BDE8F00170470246002092680A4218BFCB
:1003600001207047016170474161704770B44FF0E0
:10037000000210F0004FC4F2010218BFD36923D06D
:100380004FF0000CC7F2300C00EA0C06C0F3405CE2
:100390004FEA0C141FFA80FC0CFA04FC85B2B6F587
:1003A000401F21D010F4801F24D010F4001F4FF004
:1003B0000304C0F3034604FA06F418BF2404A3435D
:1003C00010F0E04F6DD16AE010F0804F18BF136A53
:1003D000D6D110F0005F18BF536AD1D110F0805F02
:1003E00014BF936A5368CBE7546823F0706324F01A
:1003F00070643FE010F0807F24D010F0040F13D021
:1004000010F0007F23EA0C0307D0A1B1516841F03E
:10041000010141F07061516044E0546824F001042E
:1004200044F0706454603CE045F0040505FA04F4BF
:10043000A3430029EAD1516821F0010141F0706124
:10044000516031E010F0806F24D010F0080F13D00D
:1004500010F0007F23EA0C0307D0A1B1516841F0EE
:10046000080141F0706151601CE0546824F00804F8
:1004700044F07064546014E045F0080505FA04F493
:10048000A3430029EAD1516821F0080141F07061CD
:10049000516009E023EA0C0310F0E04F01D143F072
:1004A000706309B14CEA030310F0004F1EBFD36123
:1004B00070BC704710F0804F1EBF136270BC704755
:1004C00010F0005F1EBF536270BC704710F0805F79
:1004D00014BF9362536070BC70474FF48053C4F2F2
:1004E0000203DA6A002922F4F87242EA000008BF27
:1004F00020F48070D86270474FF48051C4F202013A
:10050000CA6A22F00F021043C86270474FF480514C
:1005100030B4C4F202014A680023C0F63C031A401A
:100520004B6812F0006F03F480330CBF4FF0020CE5
:100530006FF4F77C0CEB9242002B02BF4FF4106378
:10054000C0F23D035A430CD04B6813F4003F19BF6F
:1005500048F68053C0F25B034FF4D853C0F2B703A0
:100560005A434B684FF4905C13F00C03C0F27A0CC2
:100570000BD0042B02BF4FF4D853C0F2B703036073
:1005800005D0082B08BF026001D0C0F800C04B683E
:100590004FF00F0C0CEA13134EF6445CC0F6010C3E
:1005A0001CF80330046824FA03F343604C68072501
:1005B00005EA14241CF8044023FA04F484604C680F
:1005C00005EAD4241CF804C023FA0CFCC0F80CC0C3
:1005D000D1F82CC00CF00F0C4EF65454C0F60104A8
:1005E00014F80CC0B3FBFCF34361C96A1F2303EA90
:1005F000111101F00F0104F1100333F81110B2FBD7
:10060000F1F1016130BC70474FF48052C4F2020234
:100610000029516914BF084321EA00005061704766
:100620004FF48052C4F202020029916914BF0843BA
:1006300021EA0000906170474FF48052C4F2020238
:100640000029D16914BF084321EA0000D061704736
:10065000F0B402684FF43056C4F201064FF450541F
:100660004FF440654FF4806C4FF40063C4F2010412
:10067000C4F20005C4F2000CC4F20003B04218BF7B
:10068000A04208D0B0F1804F18BF604503D0984217
:1006900018BFA84204D14F8822F0700247EA020234
:1006A000A0F18047B7F580571CBFA0F18047B7F590
:1006B000A05703D0CF8822F440723A4302608A8860
:1006C00082850A880285B04212BFA0420A7A028659
:1006D0004FF0010282820268B04218BFA04208D0E7
:1006E000B0F1804F18BF604503D0984218BFA842B0
:1006F00009D14F7A002F14BF42F4006222F4006245
:10070000B0F1804F04D060451CBF9842A84210D180
:100710008D7A002D14BF42F4805222F48052CD7A9B
:10072000002D14BF42F4005222F40052B0F1804F69
:1007300003D0604518BF984206D10D7B002D14BF31
:1007400042F4804222F48042B04218BFA04205D059
:10075000B0F1804F1CBF6045984208D191F80DC0A0
:10076000BCF1000F14BF42F4004222F400420260C8
:100770004268B0F1804F18BF984206D1897B0029AA
:1007800014BF42F4807222F480724260F0BC704761
:1007900030B4026A22F010020262026A4368B0F8C2
:1007A00018C00C884FF6FF752CF4E64C05EA0424BB
:1007B00044EA0C0C0C8922F0200242EA04124C8814
:1007C00042EA0412A0F18044B4F596341CBFA0F1B3
:1007D0008044B4F59A3411D14C8922F0800242EA67
:1007E00004128C8822F0400242EA04128C8923F41D
:1007F000406343EA8403CC8943EA84034360A0F85E
:1008000018C0C9880187026230BC704730B4026AE0
:1008100022F480520262D0F820C04268838B0C8898
:100820004FF6FF7523F4E64305EA042423430C89BD
:100830002CF4005C4CEA043C4C884CEA043CA0F1EB
:100840008044B4F596341CBFA0F18044B4F59A34CA
:1008500004D18C8922F4804242EA8412426083836C
:10086000C988A0F84010C0F820C030BC70470029EB
:10087000016814BF41F0010121F0010101607047DE
:100880000029B0F8441014BF41F40041C1F30E0137
:10089000A0F844107047002A828914BF114322EA4D
:1008A0000101818170470029016814BF41F0800176
:1008B00021F0800101607047028B4FF6FF7322F434
:1008C000006203EA0121114301837047828B4FF6D6
:1008D000FF7322F4006203EA012111438183704710
:1008E0008185704701877047A0F840107047036901
:1008F000002280890B4200EA01001CBF002801226F
:1009000010467047026922EA01010161704730B563
:100910000446008A87B00D464CF6FF710840E9880E
:1009200008432082A0894EF6F3110840A9882A893D
:1009300011436A8910430843A081A08A4FF6FF4102
:100940000840A9890843A0826846FFF7DFFDA4F1AB
:100950008040B0F59C301CBFA4F18041B1F5A831B6
:1009600006D0A4F18041B1F5AA3118BF029800D198
:10097000039848F21F5200EBC00101EB00102968F8
:10098000C5F2EB128900B0FBF1F0A2FB003149097E
:1009900009010B096FF0180C03FB0CF300EB83004B
:1009A000322303EB0010A2FB0020C0F343100843E6
:1009B000208107B030BD0029818914BF41F4005166
:1009C00021F4005181817047C1F3421301F01F01EE
:1009D0004FF0010C0CFA01F1012B08BF0C3003D0D1
:1009E000022B0CBF10301430002A026814BF1143D0
:1009F00022EA010101607047002A828A14BF114374
:100A000022EA010181827047C1F3080181807047A9
:100A10000246002012880A4218BF01207047C943CD
:100A20000180704710B401F01F0201240023C1F3BC
:100A3000421C04FA02F2BCF1010F04BFB0F80CC072
:100A40000CEA020208D0BCF1020F0CBFB0F810C0D3
:100A5000B0F814C00CEA0202090A008804FA01F195
:100A60000840002A1CBF00280123184610BC70470C
:100A700001684FF6FE721140016000210160416083
:100A80008160C16008220021C4F20202C4F20201A6
:100A9000904204BF486840F00F003ED01C22C4F2D0
:100AA0000202904204BF486840F0F00035D0302286
:100AB000C4F20202904204BF486840F470602CD037
:100AC0004422C4F20202904204BF486840F47040DD
:100AD00023D05822C4F20202904204BF486840F476
:100AE00070201AD06C22C4F20202904204BF4868FF
:100AF00040F4700011D08022C4F20202904204BF80
:100B0000486840F0706008D09422C4F2020290421B
:100B100004BF486840F0704001D1486070474FF40E
:100B20008162C4F20202111F904204BF086840F0C3
:100B30000F0045D040F21C42C4F20202904204BFB2
:100B4000086840F0F0003BD04FF48662C4F2020225
:100B5000904204BF086840F4706031D040F24442D3
:100B6000C4F20202904204BF086840F4704027D0EB
:100B70004FF48B62C4F20202904204BF086840F452
:100B800070201DD040F26C42C4F20202904204BFB9
:100B9000086840F4700013D04FF49062C4F202026F
:100BA000904204BF086840F0706009D040F294425F
:100BB000C4F20202904206BF086840F070407047DD
:100BC0000860704710B40268D1F820C08B686FF3DA
:100BD0000E1243EA0C03D1E904C44CEA040C43EAC4
:100BE0000C03D1F818C043EA0C03D1F81CC043EA47
:100BF0000C03D1F824C043EA0C03D1F828C043EA1F
:100C00000C031A430260CA6842600A68826049683D
:100C1000C16010BC70470029016812BF41F001019A
:100C20004FF6FE72114001607047002A026814BF3F
:100C3000114322EA0101016070474160704740683A
:100C400080B27047024609680020114218BF012097
:100C5000704748607047426891F804C022F480727F
:100C600022F470220B6842EA0C221A434260826826
:100C70004FF2FD73CFF6F1731A40D1E902C343EA94
:100C80000C0391F805C042EA4C021A438260C26A22
:100C9000097C22F47002491EC9B242EA0151C162C4
:100CA00070470029816814BF41F0010121F0010162
:100CB000816070470029816814BF41F4807121F47C
:100CC000807181607047816841F0040181607047E4
:100CD00001460020896811F0040F18BF01207047F9
:100CE0000029816814BF41F4A00121F4A0018160B2
:100CF000704730B4122911D04FF0070C092915D9CB
:100D0000C568A1F10A0404EB44040CFA04FC25EACA
:100D10000C0CA3404CEA0303C36012E0D0F85CC0A3
:100D20002CF0070C4CEA0303C3650AE0056901EBEC
:100D300041040CFA04FC25EA0C0CA3404CEA030322
:100D400003611F23072A0CD2D0F834C0521E02EBD5
:100D5000820293402CEA030391401943416330BC63
:100D600070470D2A0CD2D0F830C0D21F02EB82029D
:100D700093402CEA030391401943016330BC704750
:100D8000D0F82CC00D3A02EB820293402CEA030308
:100D900091401943C16230BC704740F608014FF4DE
:100DA000C152C4F20201C4F20002002813680868AC
:100DB00014BF40F4000020F40000086014BF43F4A6
:100DC000806023F480601060704702460020926DBE
:100DD0000A4218BF0120704710B50C4640B10121EE
:100DE0002046FFF77AFBBDE810400020FFF784BBE8
:100DF00000214FF48070FFF770FB2046BDE81040E3
:100E0000FFF77ABB4FF44051C4F20001086070470D
:100E10004FF44051C4F20001486070474FF4405114
:100E2000C4F20001886070474FF44051C4F20001E1
:100E30004AF6AA20086070474FF44051C4F20001FE
:100E40004CF6CC40086070474EF60C5140F0FD70F7
:100E5000CEF2000140F080600860704710B4C278A4
:100E600001784FF00F0C01233AB34EF60C52CEF23C
:100E70000002126801F1E02102F4E062C2F5E062D2
:100E8000120AC2F104042CFA02F290F801C00CFA22
:100E900004FC8478224042EA0C02120181F800240A
:100EA000007800F01F0103FA01F14009800000F111
:100EB000E020C0F8001110BC704701F01F0003FAD9
:100EC00000F04909890001F1E021C1F8800110BC5E
:100ED0007047042818BF70474FF0E020016941F0C7
:100EE0000401016170470000094880470948004734
:100EF000FEE7FEE7FEE7FEE7FEE7FEE7FEE7FEE7CA
:100F0000FEE7FEE704480549054A064B7047000026
:100F1000290F01089901010898A7002098BF002017
:100F200098AA002098AA00204EF68850CEF2000021
:100F3000016841F4700101604FF48050C4F2020076
:100F4000016841F00101016041684FF44042CFF671
:100F5000FF0211404160016821F4102121F08071ED
:100F60000160016821F480210160416821F47F0162
:100F700021F0006141600021C16201634FF41F0153
:100F80008160C16941F08051C1614FF4E041C4F218
:100F90000001CA6842F00102CA60C16921F08051B3
:100FA000C1614FF40053C4F20203196841F090018B
:100FB00019600268002142F4803202600268491C14
:100FC000C2F3404212B9B1F5004FF7D10168C1F345
:100FD0004041002936D0196821F0030119601968D1
:100FE00041F0020119604168416041684160416817
:100FF00041F480614160416821F47C1121F000617D
:101000004160416841F42C114160016841F08071F8
:101010000160016811F0007FFBD0416821F00301FD
:101020004160416841F002014160416801F00C01FA
:101030000829FAD14EF60851CEF200014FF00060B7
:10104000086070474FF49050C0F27A0040F20001FF
:10105000C2F200010860EDE7F8B500240121082084
:10106000FFF7DEFA40F60340ADF8000003258DF8E7
:10107000025010204FF440668DF80300C4F20106C0
:1010800069463046FFF710F901213046FFF76CF949
:10109000F1143046FFF768F902213046FFF764F992
:1010A00031153046FFF760F9C82002F00DFF00BF90
:1010B00003F00BFB611CCCB2032CF9D302213046A8
:1010C000FFF750F94FF480613046FFF74DF9C82023
:1010D00002F0FAFE5FF0000403F017FB611CCCB2D3
:1010E000032CF9D302213046FFF73CF94FF480611D
:1010F0003046FFF737F9C82002F0E6FE5FF0000443
:1011000003F023FB611CCCB2032CF9D3022130463F
:10111000FFF72AF94FF480613046FFF723F9C82022
:1011200002F0D2FE5FF0000403F02AFB611CCCB297
:10113000032CF9D3C82002F0C7FE4FF400613046FB
:10114000FFF710F940F20240ADF800008DF80250B0
:1011500004208DF8030069463046FFF7A5F8F8BD76
:1011600030B58BB001210420FFF766FA0121082079
:10117000FFF756FA01210420FFF752FA4FF40070EE
:10118000ADF8100003248DF8124018208DF81300DC
:101190004FF4406004A9C4F20100FFF785F8102065
:1011A000ADF810008DF812404FF400648DF8130074
:1011B000C4F2010404A92046FFF776F81021204666
:1011C000FFF7D0F81420ADF8180000246320ADF824
:1011D0001C004FF40065C4F20005ADF81A40ADF8EC
:1011E0001E408DF8204006A92846FFF731FA6020FE
:1011F000ADF800000120ADF80200ADF8084008206D
:10120000ADF80A004001ADF80C00ADF80440ADF8AF
:101210000640ADF80E4069462846FFF7F7FA01216F
:101220002846FFF724FB01212846FFF729FB6946E2
:101230002846FFF7EBFA08212846FFF747FB012174
:101240002846FFF730FB01212846FFF710FB00215D
:101250002846FFF749FB0BB030BDF8B507F0B0FAF0
:10126000002540F20400C2F20000856002F03FFE5B
:1012700002F030FD03F0A0FA03F07BF80121042016
:10128000FFF7CEF901210820FFF7CAF90121042058
:10129000FFF7C6F90420ADF8000003248DF80240E2
:1012A00010204FF400668DF80300C4F20106694671
:1012B0003046FEF7F9FF04213046FFF755F880204D
:1012C000ADF800008DF8024028208DF803004FF49F
:1012D00040606946C4F20100FEF7E6FF0820ADF861
:1012E00000008DF8024048208DF803006946304622
:1012F000FEF7DAFF02F084FC04F005F9FFF730FF97
:10130000FFF7AAFE40F22A40C2F200000570F8BDC5
:101310002DE9F041074640F21800C2F20000807843
:10132000012626EAD01006F0AAFE002540F20404A9
:10133000C2F20004A5601FB102F054FCA570E57074
:101340002671657103F0B2FA44F6F011C0F20201A1
:1013500040F63010C2F2000000F00CFA03F0B1FACF
:10136000042142F29070C2F2000003F0E6FA42F665
:101370002400C2F2000003F0B7FE022142F6E800AA
:10138000C2F2000003F0D9FA4DF29001C0F203015D
:1013900040F64010C2F2000000F0ECF9002142F2E9
:1013A0009070C2F2000003F049FE002142F29070FA
:1013B000C2F2000003F08CFB002142F63C00C2F2B6
:1013C000000003F03BFE002142F63C00C2F20000A8
:1013D00003F07EFB002142F6E800C2F2000003F0B9
:1013E00077FB207920F00100207100F0E8F930B19E
:1013F000012142F63C00C2F2000003F0FCFA00F0CA
:10140000E8F9002818BFBDE8F081012142F6E800A4
:10141000C2F20000BDE8F04103F0EDBA012080F314
:10142000108840F20400C2F200008068002181F3BD
:101430001088704740F20402C2F20002D388A1F182
:10144000010C03F470430343D380BCF1030F9CBF32
:1014500043EA0123D380D070022801D091707047F5
:101460001078002804BF01201070F7D0704770B5C5
:1014700042F29070C2F2000003F0B8FB70B942F67D
:101480003C00C2F2000003F0B1FB38B942F6E800BC
:10149000C2F2000003F0AAFB002861D042F6E80087
:1014A000C2F2000003F0A2FB42F29074C2F2000408
:1014B00042F63C05C2F2000560B142F6E800C2F215
:1014C000000003F0EDFB42F6E800C2F2000003F07A
:1014D000F6FA13E094F88E0030B1002142F29070D9
:1014E000C2F2000003F0AAFD95F88E0030B1002191
:1014F00042F63C00C2F2000003F0A0FD42F2907000
:10150000C2F2000003F072FB70B194F88E0058B97B
:1015100042F29070C2F2000003F0C2FB42F29070FF
:10152000C2F2000003F0CBFA42F63C00C2F2000027
:1015300003F05CFB002808BF70BD95F88E00002802
:1015400018BF70BD42F63C00C2F2000003F0A8FBD9
:1015500042F63C00C2F20000BDE8704003F0AFBAB2
:1015600040F20400C2F20000417900291CBF0021B2
:10157000417170BD10B540F20400C2F20000407825
:10158000B0B140F64010C2F2000000F001F978B1AD
:1015900042F6E800C2F2000003F09FFB4DF290011A
:1015A000C0F2030140F64010C2F2000000F0E2F881
:1015B00040F63010C2F2000000F0EAF8002808BF40
:1015C00010BD03F0FFFD002808BF10BD44F6F01168
:1015D000C0F2020140F63010C2F2000000F0CAF87A
:1015E00003F0EAFD80B1012818BF10BD42F63C00AF
:1015F000C2F2000003F071FB42F63C00C2F20000B0
:10160000BDE8104003F082BD42F29070C2F20000CB
:1016100003F063FB42F29070C2F2000003F076FD2B
:10162000BDE8104023E740F20401C2F20001487017
:10163000704710B50446014642F29070C2F20000B5
:1016400003F0FCFC214642F63C00C2F20000BDE87B
:10165000104003F0F3BC002181624162C16001616E
:101660004161816180F82010C161016370470022EF
:10167000826042600260C0E90A224262C260026186
:101680004261826180F82020C26102637047D0ED20
:101690000B0AF8EEE00A70EEC00A90ED0A0A30EE8E
:1016A000200A10EE101A80ED0A0AB1F1874FC4BF6C
:1016B0004FF0874181620BDC10EE101A11F1725F5E
:1016C00022BF0021CCF2803100EE101A80ED0A0A10
:1016D00090ED000A90F8201090ED011A60EE201AAB
:1016E00090ED0A0A00EB810190ED072A20EE011A25
:1016F000D1ED032A90ED090A32EE622A30EEC00ADB
:1017000080ED072A81ED030A90ED072A32EE000AE8
:1017100080ED070A90F82010491C01F0030180F8C1
:10172000201090ED022AC0ED090A71EE810A20EE28
:10173000020A30EE800ABDEEC00A10EE101A49000F
:10174000016308467047C26A521A48BF52420A2AC9
:101750000ADD002282624262C260026142618261ED
:1017600080F82020C2610263C162704700210170CD
:101770004170704770B50446012020700025A570A7
:101780000E466570FFF74AFEE560C4E9010670BDCC
:1017900010B50446007880B16078002804BFA078B6
:1017A00000280AD1FFF73AFE6168401AA168814219
:1017B00003D80020207001206070607810BD40F2D6
:1017C0001800C2F20000007F022814BF0120002090
:1017D000704740F21800C2F2000090F8AE000128F5
:1017E00018BF00207047002040F21001C2F2000133
:1017F0000870112140F21800C2F2000080F8DA10DF
:101800004EF6AC51C0F601010A6882608A68C26077
:10181000A1F128021368C3675368C0F88030936849
:10182000C0F88430D368C0F888301269C0F88C20C2
:101830000A68C0F890208A68C0F89420027F022AC3
:1018400003D04A688260C968C1600021C4F20821DF
:101850000162002141627047012240F20011C2F290
:101860000001CA7100208881C88108820862C8709E
:1018700040F21803C2F2000393F81CC0BCF1020F3F
:1018800005D193F8A830002B18BF8A7100D1887158
:1018900040F22412C2F20002108050804872704759
:1018A0002DE9F05F4E2140F20015C2F20005A88933
:1018B00000EB400040F69819C2F2000909EB401015
:1018C00008F044FF40F24816C2F20006306068B1EA
:1018D0000021401C0CF094F851EC100B0CF05AFA5B
:1018E00000EE100ABCEEC00A85ED050A00244EF693
:1018F000CC5BC0F6010B40F6841AC2F2000AA04687
:10190000AAF11407A8891BF8041000EB400009EBAA
:10191000401008F01BFF306070B30021401C0CF039
:101920006FF851EC100B0CF035FA47F82400601CEE
:1019300044B2032CE6DBA889452100EB400009EB0B
:10194000401008F003FF306040B3A978A9B340F21B
:10195000B851C2F200010978002908BFDAF80C80FA
:101960000021401CC7F80C800CF04AF851EC100B19
:101970000CF010FA38613FE040F2B850C2F20000BB
:101980000078002812BF00EE108A0AEB840090ED68
:10199000000A07EB840080ED000AC8E740F2B85067
:1019A000C2F200000078002814BF00EE108A9AED01
:1019B000030A87ED030A1DD148E0FFE7297800F10B
:1019C000010001294FF0000138D00CF019F851EC5A
:1019D000100B0CF0DFF900EE100ADAED030A30EE1E
:1019E000200A87ED030A00BF40F2B850C2F200009F
:1019F000007858B3C7F81080A889462100EB400052
:101A000009EB401008F0A2FE3060002808BFBDE8D6
:101A1000F09F0021401C0BF0F3FF51EC100B0CF079
:101A2000B9F900EE100A85ED0A0AB5EEC00AF1EE2A
:101A300010FAC8BF85ED060ABDE8F09F0BF0E0FF85
:101A400051EC100B0CF0A6F9F860CDE7DAF8108035
:101A5000D0E710B5012040F20014C2F20004607219
:101A6000FFF71EFF206A401C20620020C4F2702095
:101A700094ED061A00EE900A81EE200A40F67010EE
:101A8000C2F2000006F001FB40F2B850C2F20000C2
:101A9000027840F67011C2F2000101F1140042B365
:101AA00090ED000AD1ED000A30EE200A80ED000A28
:101AB00090ED010AD1ED010A30EE200A80ED010A15
:101AC00090ED020AD1ED020A30EE200A80ED020A02
:101AD00090ED030AD1ED030A30EE200A80ED030AEF
:101AE00090ED040AD1ED040A30EE200A80ED040ADC
:101AF00010BD91ED000A80ED000A91ED010A80ED24
:101B0000010A91ED020A80ED020A91ED030A80EDCF
:101B1000030A91ED040AE9E72DE9F04100250220CE
:101B200040F20014C2F200046072A089502100EB60
:101B3000400040F69817C2F2000707EB401008F08B
:101B400005FE40F24816C2F20006306068B100217E
:101B5000401C0BF055FF51EC100B0CF01BF900EE84
:101B6000100ABCEEC00A10EE105AA089532100EBF7
:101B7000400007EB401008F0E9FD3060A0B1002103
:101B8000401C0BF03DFF51EC100B0CF003F900EE84
:101B9000100A0020C4F27A4000EE900A20EE200ADB
:101BA000BCEEC00A10EE105A206A401C20624FF4AE
:101BB0007A7005FB00F140F65010C2F20000BDE85B
:101BC000F041FFF7D7BD2DE9F04786B000244EF66F
:101BD000CC5AC0F6010A40F69818C2F2000840F24A
:101BE0004816C2F200064FF00109A8F1140740F2AE
:101BF0000015C2F2000500BFA8891AF8041000EB16
:101C0000400008EB401008F0A1FD306048B1002111
:101C1000401C0BF0F5FE51EC100B0CF0BBF847F834
:101C20002400601C44B2052CE6DBA889452100EBAA
:101C3000400008EB401008F089FD48F28058C2F2DD
:101C400000083060002804BF00246E4640D040F2F7
:101C50009C41C2F20001097800291EBF40F2B9710F
:101C6000C2F2000181F800900021401C0BF0C8FE78
:101C700051EC100B0CF08EF8A97807EB8101C860CD
:101C800097ED030AD8ED250A20EE200A10EE100A7F
:101C90000CF05AFF41EC100B0AF0CAFF039097EDCD
:101CA000040AD8ED310A20EE200A10EE100A0CF0DA
:101CB0004BFF41EC100B0AF0BBFF0490286A401C5C
:101CC0002862DDE9030106F0AAF906B0BDE8F08755
:101CD00007EB840090ED000A04EB440008EB0010D1
:101CE000D0ED010A20EE200A10EE100A0CF02CFFB5
:101CF00041EC100B0AF09CFF46F82400601C44B233
:101D0000052CE5DBA87930B1A878002807BF039837
:101D1000049004980390286A0021401C28626846B9
:101D200006F044F906B0BDE8F0872DE9F0415FEA1E
:101D3000000814BF80240024582140F20016C2F28B
:101D40000006B08900EB400040F69817C2F2000789
:101D500007EB401008F0FAFC40F24815C2F200050B
:101D60002860002835D1B089592100EB400007EBED
:101D7000401008F0EBFC286058BBB0895A2100EBFA
:101D8000400007EB401008F0E1FC286008BBB08978
:101D9000452100EB400007EB401008F0D7FC28601D
:101DA000B8B9B089412100EB400007EB401008F0C2
:101DB000CDFC286068B9B089422100EB400007EBF8
:101DC000401008F0C3FC2860002808BF44F01F043E
:101DD00049D0B089582100EB400007EB401008F0D3
:101DE000B5FC2860002818BF44F001045921B089CF
:101DF00000EB400007EB401008F0A8FC286000282A
:101E000018BF44F002045A21B08900EB400007EBF0
:101E1000401008F09BFC2860002818BF44F0040420
:101E20004121B08900EB400007EB401008F08EFC28
:101E30002860002818BF44F008044221B08900EB54
:101E4000400007EB401008F081FC2860002818BF14
:101E500044F010044521B08900EB400007EB40102E
:101E600008F074FC2860306A401C3062B07940B1E0
:101E7000B07860B124F0080414F0100F18BF44F0DB
:101E8000080441462046BDE8F04106F050BB24F06E
:101E9000100414F0080F18BF44F01004F1E72DE906
:101EA000F041582140F20015C2F20005A88900EB6C
:101EB000400040F69816C2F2000606EB401008F00B
:101EC00045FC40F24814C2F2000443F2CC27C2F2AF
:101ED0000007206068B10021401C0BF091FD51EC1F
:101EE000100B0BF057FF00EE100ABCEEC00A87ED96
:101EF000000AA889592100EB400006EB401008F0C9
:101F000025FC206068B10021401C0BF079FD51ECEC
:101F1000100B0BF03FFF00EE100ABCEEC00A87ED7D
:101F2000010AA8895A2100EB400006EB401008F096
:101F30000DFC206068B10021401C0BF061FD51ECEC
:101F4000100B0BF027FF00EE100ABCEEC00A87ED65
:101F5000020AA889412100EB400006EB401008F07E
:101F6000F5FB206068B10021401C0BF049FD51ECED
:101F7000100B0BF00FFF00EE100ABCEEC00A87ED4D
:101F8000030AA889422100EB400006EB401008F04C
:101F9000DDFB206068B10021401C0BF031FD51ECED
:101FA000100B0BF0F7FE00EE100ABCEEC00A87ED36
:101FB000040ABDE8F04106F05CBB2DE9F04F2DEDC1
:101FC000028B83B04FF2CC40C0F601004FF0FF34DB
:101FD0000068A1462746532140F20016C2F20006CF
:101FE0000090B08900EB400040F69818C2F200085B
:101FF00008EB401008F0AAFB40F24815C2F20005B9
:1020000040F62C1BC2F2000B286088B10021401C56
:102010000BF0F6FC51EC100B0BF0BCFE00EE100ABE
:10202000BDEEC00A10EE104AB7EE000A8BED000AB2
:10203000B089542100EB400008EB401008F086FB0B
:10204000286088B10021401C0BF0DAFC51EC100B29
:102050000BF0A0FE00EE100ABDEEC00A10EE109AC2
:10206000B0EE000A8BED000AB0894C2100EB400075
:1020700008EB401008F06AFB2860A8B10021401C62
:102080000BF0BEFC51EC100B0BF084FE00EE100ABE
:10209000BDEEC00A10EE107A032FC8BF4FF0FF3715
:1020A000B0EE080A8BED000AB4F1FF3F19BFB9F199
:1020B000FF3FB7F1FF3F03B0BDEC028B08BFBDE8A7
:1020C000F08F4FF0000446F62830C4F66E6008EE3C
:1020D000100AEA4640F2D861C2F2000107EB47005D
:1020E00001EB8001029140F29061C2F2000101EB2C
:1020F0008001019140F2FC61C2F2000101EB800B12
:1021000040F2B461C2F2000101EB8007B0891AF815
:10211000041000EB400008EB401008F017FB2860AB
:1021200028B30021401C0BF06BFC51EC100B0BF0A2
:1021300031FE00EE900A80EE880A40F62C10C2F2C2
:10214000000080ED000AB9F1010F08DA029800EBF7
:10215000840080ED000A019800EB840005E00BEBA1
:10216000840080ED000A07EB840080ED000A641C07
:10217000032CCBDB03B0BDEC028BBDE8F08F2DE967
:10218000F05F0024582140F20016C2F20006B08928
:1021900000EB400040F69817C2F2000707EB401032
:1021A00008F0D4FA40F24815C2F2000540F2406847
:1021B000C2F20008286050B10021401C0BF020FC46
:1021C00051EC100B0BF0E6FD0124C8F80000B089BB
:1021D000592100EB400007EB401008F0B7FA40F23D
:1021E0004469C2F20009286050B10021401C0BF084
:1021F00007FC51EC100B0BF0CDFD0224C9F80000D8
:10220000B089542100EB400007EB401008F09EFA23
:10221000286020B30021401C0BF0F2FB51EC100BA6
:102220000BF0B8FD00EE100AB5EEC00AF1EE10FAA0
:1022300015DDD8ED000A0021C4F2A02130EE201AED
:1022400011EE100A81420ADD70EE800A0324C8ED07
:10225000000AD9ED000A30EE800A89ED000A4C210F
:1022600040F20010C2F20000808900EB400240F60C
:102270009810C2F2000000EB421008F067FA40F23A
:102280004811C2F20001086000286FD00021401CF4
:102290000BF0B6FB51EC100B0BF07CFD00EE100ABE
:1022A000BDEEC00A10EE100A00B240F2BC71C2F2DC
:1022B0000001088040F2D86BC2F2000B40F2B46E0D
:1022C000C2F2000E012827D140F22079C2F20009A3
:1022D00099E8EE118BE8EE11D9F8209040F2906A5F
:1022E000C2F2000ACBF82090CAF820908AE8EE11DA
:1022F00040F2FC69C2F2000940F2447AC2F2000ADC
:102300009AE8EE1189E8EE11DAF820A0C9F820A0C9
:10231000CEF820A08EE8EE11042827D140F268788C
:10232000C2F2000898E8EF108BE8EF10D8F8209080
:1023300040F29068C2F20008CBF82090C8F82090D4
:1023400088E8EF1040F2FC68C2F2000840F28C7995
:10235000C2F2000999E8EF1088E8EF10D9F8209050
:10236000C8F82090CEF820908EE8EF10002CC8BF5F
:1023700006F038FC532140F20010C2F200008089C0
:1023800000EB400240F69810C2F2000000EB421051
:1023900008F0DCF940F24811C2F2000108600028A0
:1023A00008BFBDE8F09F01240021401C0BF028FB72
:1023B00051EC100B0BF0EEFC00EE100ABDEEC00A63
:1023C00010EE100A01B240F2BC70C2F200000180AF
:1023D00040F29E45C2F200050029DCBF2C70BDE82A
:1023E000F09F491E042928BF048008F022F840F21B
:1023F0009C40C2F20000047000202870BDE8F09FED
:102400002DE9F047532140F20015C2F20005A889DA
:1024100000EB400040F69816C2F2000606EB4010B2
:1024200008F094F940F24817C2F2000740F6B838B5
:1024300040F2C044C2F200043860B0B10021401C38
:102440000BF0DEFA51EC100B0BF0A4FC00EE100ABE
:1024500040F6C512BCEEC00A10EE100AA0F5FA71E3
:1024600091422CBFC4F8008020605021A88900EB65
:10247000400006EB401008F069F94FF4FA69386043
:10248000B0B10021401C0BF0BBFA51EC100B0BF06B
:1024900081FC00EE100A40F2DD52BCEEC00A10EEE4
:1024A000100AA0F5FA7191422CBFC4F80090206088
:1024B0005221A88900EB400006EB401008F046F9D5
:1024C0003860B8B10021401C0BF09AFA51EC100BA7
:1024D0000BF060FC00EE100ABCEEC00A10EE100A11
:1024E00040F2C441C2F20001B0F5FA6F94BF086037
:1024F000C1F800905421A88900EB400006EB401081
:1025000008F024F93860002808BFBDE8F0870021F2
:10251000401C0BF075FA51EC100B0BF03BFC00EE7D
:10252000100ABCEEC00A10EE100AA0F5C871B1F591
:10253000616F94BF2060C4F80080BDE8F087592126
:102540002DE9F0412DED048B40F20017C2F2000797
:10255000B88900EB400040F69818C2F2000808EB7A
:10256000401008F0F3F840F24814C2F200040021D1
:10257000C4F27A4108EE901A40F21806C2F2000640
:1025800048F28055C2F20005B7EE009A206078B399
:102590000021401C0BF034FA51EC100B0BF0FAFB4D
:1025A00000EE100A2068002180EE288A401C0BF003
:1025B00027FA51EC100B0BF0EDFB00EE100A4FF474
:1025C0007A71BDEEC00A10EE100A4843C6F88000CA
:1025D00085ED0D8A40F2D070C2F2000089EE080A43
:1025E00080ED008A40F2D470C2F2000080ED000A53
:1025F000B889582100EB400008EB401008F0A6F81D
:10260000206070B30021401C0BF0FAF951EC100B64
:102610000BF0C0FB00EE100A2068002180EE288A33
:10262000401C0BF0EDF951EC100B0BF0B3FB00EE7E
:10263000100A4FF47A71BDEEC00A10EE100A48433A
:10264000F06785ED018A40F2D870C2F2000089EE91
:10265000080A80ED008A40F2E070C2F2000080EDCE
:10266000000AB889452100EB400008EB401008F053
:102670006DF82060002804BFBDEC048BBDE8F0813C
:102680000021401C0BF0BCF951EC100B0BF082FB4D
:1026900000EE100A2068002180EE288A401C0BF012
:1026A000AFF951EC100B0BF075FB00EE100A4FF474
:1026B0007A71BDEEC00A10EE100A4843C6F88800D1
:1026C00085ED258A40F2DC70C2F2000089EE080A2E
:1026D00080ED008A40F2E470C2F2000080ED000A52
:1026E000BDEC048BBDE8F0812DE9F0414FF461763B
:1026F000042040F20015C2F200056872A889542136
:1027000000EB400040F69817C2F2000707EB4010BC
:1027100008F01CF840F24814C2F20004206070B1C6
:102720000021401C0BF06CF951EC100B0BF032FB4C
:1027300000EE100ABCEEC00A10EE100AA870A889BC
:10274000502100EB400007EB401007F0FFFF206036
:1027500070B10021401C0BF053F951EC100B0BF041
:1027600019FB00EE100ABCEEC00A10EE100A86B289
:10277000286A401C286244F24020C0F20F0006FB89
:1027800000F140F66010C2F20000BDE8F041FEF733
:10279000F1BF2DE9F04700273E46532140F20014D7
:1027A000C2F20004A08900EB400040F69819C2F282
:1027B000000909EB401007F0C9FF40F24815C2F2CA
:1027C00000054FF00108286070B10021401C0BF09B
:1027D00017F951EC100B0BF0DDFA00EE100ABDEE0C
:1027E000C00A10EE100A07B2A089542100EB400085
:1027F00009EB401007F0AAFF286070B10021401CCF
:102800000BF0FEF851EC100B0BF0C4FA00EE100ABE
:10281000BCEEC00A10EE100AC6B2206A401C20624C
:10282000012E19BF42F29075C2F2000542F63C0536
:10283000C2F200053946284602F04AF942F6E8009D
:10284000C2F2000002F0D2F950B142F6E800C2F242
:10285000000002F0F4F918B9284602F0F0F968B166
:102860000021284602F0EAFB40F20800C2F2000014
:10287000017821F001010170BDE8F08784F8038040
:102880000121284602F0DAFBEEE72DE9F05F012096
:1028900040F20016C2F200067072B089582100EBB7
:1028A000400040F69818C2F2000808EB401007F00C
:1028B0004DFF40F24817C2F2000740F2180BC2F277
:1028C000000B4FF0000A40F2B859C2F20009A8F11B
:1028D000280505F11404386000287DD0DBF8540089
:1028E000400800EE100AB8EE400AB1EE400A85ED4D
:1028F000000AB089592100EB400008EB401007F0B6
:1029000025FF3860002868D0DBF85800400800EE4A
:10291000100AB8EE400AB1EE400A85ED010AB0890E
:102920005A2100EB400008EB401007F00FFF386021
:10293000002802BF99F800000028D4F808A04FF042
:102940004601C5F808A0B08900EB400008EB401034
:1029500007F0FCFE386090B10021401C0BF050F8ED
:1029600051EC100B0BF016FA00EE100A86ED0A0A75
:10297000B5EEC00AF1EE10FAC8BF86ED060A306A5D
:10298000401C30620020C4F2702096ED061A00EE62
:10299000900A81EE200A40F67010C2F2000005F0A5
:1029A00074FB99F80000002842D094ED000AD5EDA0
:1029B000000A30EE200A84ED000A94ED010AD5EDFC
:1029C000010A30EE200A84ED010A94ED020AD5EDE9
:1029D000020A30EE200A01E014E01EE084ED020A53
:1029E00094ED030AD5ED030A30EE200A84ED030AC4
:1029F00094ED040AD5ED040A30EE200A84ED040AB1
:102A0000BDE8F09F99F80000002814BF00EE10AA5E
:102A100094ED000A85ED000A6BE799F800000028A4
:102A200014BF00EE10AA94ED010A85ED010A76E7C5
:102A300095ED000A84ED000A95ED010A84ED010A86
:102A400095ED020A84ED020A95ED030A84ED030A6E
:102A500095ED040AD2E72DE9F05F012040F200165F
:102A6000C2F200067072B089582100EB400040F6B7
:102A70009818C2F2000808EB401007F067FE40F219
:102A80004817C2F2000740F2180BC2F2000B4FF0D9
:102A9000000A40F2B859C2F20009A8F1280404F172
:102AA0001405386000287DD0DBF85400400800EEA3
:102AB000100AB8EE400A84ED000AB089592100EBF3
:102AC000400008EB401007F041FE386000286AD053
:102AD000DBF85800400800EE100AB8EE400A84ED1A
:102AE000010AB0895A2100EB400008EB401007F0C2
:102AF0002DFE386000287CD09BED170AB8EE400A06
:102B000084ED020AB089462100EB400008EB40103A
:102B100007F01CFE386090B10021401C0AF070FFE5
:102B200051EC100B0BF036F900EE100A86ED0A0A94
:102B3000B5EEC00AF1EE10FAC8BF86ED060A306A9B
:102B4000401C30620020C4F2702096ED061A00EEA0
:102B5000900A81EE200A40F67010C2F2000005F0E3
:102B600094FA99F8000000284CD095ED000AD4EDB5
:102B7000000A30EE200A85ED000A95ED010AD4ED39
:102B8000010A30EE200A85ED010A95ED020AD4ED26
:102B9000020A30EE200A85ED020A95ED030AD4ED13
:102BA000030A01E00EE019E030EE200A85ED030A89
:102BB00095ED040AD4ED040A30EE200A85ED040AEE
:102BC000BDE8F09F99F80000002814BF00EE10AA9D
:102BD00095ED000A84ED000A6FE70AE099F800001D
:102BE000002814BF00EE10AA95ED010A84ED010A39
:102BF00077E799F80000002808BFD5F808A0C4F8C6
:102C000008A07FE794ED000A85ED000A94ED010A23
:102C100085ED010A94ED020A85ED020A94ED030A9E
:102C200085ED030A94ED040AC8E72DE9F043A1B04D
:102C3000472140F20015C2F20005A88900EB4000D0
:102C400040F69817C2F2000707EB401007F07EFD30
:102C500040F24816C2F2000601244FF0000830602E
:102C600030B30021401C0AF0CBFE51EC100B0BF0EE
:102C700091F800EE100ABDEEC00A10EE101A40F2F4
:102C8000B850C2F200005B2904BF1F21017000F0A0
:102C900087813ADC002918BF012940D0042943D09C
:102CA0005A2908BF80F8008000F07A8100F005BA48
:102CB000A8894D2100EB400007EB401007F046FDCE
:102CC000306080B30021401C0AF09AFE51EC100BDA
:102CD0000BF060F800EE100ABDEEC00A10EE100A0C
:102CE0008C2872D060DC522808BF2C7000F058810C
:102CF00042DC072877D035DC032800F0DE81062887
:102D000008BFFFF7F1FC00F0D8B95C2910D0A12969
:102D100012D0A22908BFFFF79EFE00F0CEB9FEF741
:102D200098FE00F0CAB90BE0FEF7F6FE00F0C5B958
:102D3000FEF749FF00F0C1B9FFF7A7FD00F0BDB9EC
:102D4000A88900EB400007EB40134FF2D042C0F6D9
:102D500001024FF2E441C0F60101684607F0CCFBE6
:102D600000F0ABB9112808BF012069D0122808BFB4
:102D7000002065D000F0A1B9682864D00ADC53288F
:102D800008BF85F800807CD05C2808BFFFF7D7FB20
:102D900000F093B940F2F939C2F200096A2855D01F
:102DA0006B286FD000F089B940F25222A0F2522174
:102DB000904268D00BDCC92866D040F37E81CC28D5
:102DC00077D0DC2876D000F078B988E00BE00129D4
:102DD00071D0022970D039296FD0A1F580703938AF
:102DE0006CD000F06AB905206872A8894FF4167497
:102DF00000EB4000502107EB401007F0A7FC3060CB
:102E000070B10021401C0AF0FBFD51EC100B0AF0E0
:102E1000C1FF00EE100ABCEEC00A10EE100A84B228
:102E2000286A401C286244F24020C0F20F0004FBD4
:102E300000F140F66010C2F20000FEF79BFC3CE19E
:102E4000FEF773FF39E1FFF7A4FC36E1A8895321AF
:102E500000EB400007EB401007F078FC30600028E2
:102E60007ED00021401C0AF0CBFD51EC100B0AF083
:102E700091FF00EE100ABCEEC00A10EE100AC0B2BC
:102E800003E08DE01BE08FE06DE089F80000FF2893
:102E900066D307F0CEFA40F2BC70C2F200000480A4
:102EA00040F29C40C2F200000470FF2089F800004C
:102EB00003E15BE05DE09FE0A1E0A3E0C5E040F25C
:102EC0009E40C2F20000047042F2107140F65010B1
:102ED000C2F20000FEF74EFC89F80080EDE000240D
:102EE000FEF777FC00283BD0A889532100EB400077
:102EF00007EB401007F02AFC306070B10021401C45
:102F00000AF07EFD51EC100B0AF044FF00EE100AAF
:102F1000BDEEC00A10EE100A04B2286A2146401C19
:102F2000286242F6E800C2F2000001F0D1FD012063
:102F3000FEF779FB002442F6E800C2F2000001F03F
:102F40007EFE002808BF0124EC702046FEF771FBCE
:102F500040F20800C2F20000017821F0010100E017
:102F60004CE00170A9E0FEF79AFFA6E0FFF748FAEF
:102F7000A3E0A889532100EB400007EB401007F0C5
:102F8000E5FB306060B10021401C0AF039FD51ECD6
:102F9000100B0AF0FFFE40F2BC51C2F200010860C3
:102FA000286A401C286288E0A889532100EB400071
:102FB00007EB401007F0CAFB3060F8B10021401C5D
:102FC0000AF01EFD51EC100B0AF0E4FE00EE100AB0
:102FD0004CF6CD4110EE100AC3F64C618142C1BFE0
:102FE000B5EEC00AF1EE10FA40F68C00C2F2000015
:102FF000C8BF80ED000A60E0FFF7C1F85DE0FEF7B2
:10300000DCFF5AE0A889532100EB400007EB401099
:1030100007F09CFB3060E8B30021401C0AF0F0FC94
:1030200051EC100B0AF0B6FE00EE100ABCEEC00A1E
:1030300010EE100AC1B2FF2928BFFF214FF4006033
:10304000C4F20000FDF750FC37E040F2A340C2F2AA
:103050000000007840F2A441C2F200010978401A51
:10306000803010F07F0F28D1286A401C00244EF6D3
:10307000CC59C0F601092862A88919F8041000EBA0
:10308000400007EB401007F061FB3060601CC4B2E9
:10309000052C00E011E0EFD3A889532100EB40009C
:1030A00007EB401007F052FB3060002818BF0020EB
:1030B00003D0401CC0B20528FBD3288A0421401E3F
:1030C00028824FF4006085F80180C4F20100FDF70A
:1030D0004BF9287B401C00F03F00A88121B0BDE8DF
:1030E000F0832DE9F04186B000F03DFD002540F26F
:1030F0000014C2F20004002844D042F29818C2F230
:1031000000080126A8F5C057208A402832D200F0D6
:1031100039FD00282ED000F040FD0A281EBF0D28E2
:10312000E1695F2916DBE169002908BFA572EBD0D0
:10313000E08900EB400207EB4212555408F80060AA
:10314000218A491C401C218200F03F00E081A572C9
:10315000E561D9E73B2808BFA672D5D0A27A002A3C
:10316000D2D1E28902EB420207EB42125054481CD2
:10317000E061C9E700F006FD002802BF208A0028B0
:1031800000F01AFDE07850B142F6E800C2F200000B
:1031900001F009FD18B10020FEF74BFAE570684612
:1031A00004F03FFF607A012802D104F069FD18B1F4
:1031B000607A02280AD101E0657207E040F65010FB
:1031C000C2F20000FEF7E4FA0028F5D1A07800284A
:1031D00007BF42F29076C2F2000642F63C06C2F207
:1031E0000006607A042810D140F66010C2F2000098
:1031F000FEF7CEFA38B9304601F0F8FC18B1304687
:1032000001F0D1FC08B1657220E0607A052817D181
:1032100040F66010C2F20000FEF7BAFA0028F2D1C0
:1032200042F6E800C2F2000001F0E0FC0028EAD01B
:1032300042F6E800C2F2000001F0B5FC0028E2D13D
:10324000607A00281CBF06B0BDE8F081208A002803
:1032500018BFFFF7EAFC06B0BDE8F08138B542F2CE
:103260005020C2F2000000900078002542F2D814ED
:10327000C2F20004A8B10098017850290BD1401C7B
:10328000694600900AF0BCFB51EC100B0AF082FD7D
:1032900044F825006D1C0098401C00900078002820
:1032A000E9D194ED180A48F6E020C2F2000080ED62
:1032B000000A94ED170A80ED010A94ED0C0A80EDE6
:1032C000020A94ED0B0A80ED030A94ED000A80EDEA
:1032D000040A94ED190A80ED060A94ED160A80EDB1
:1032E000070A94ED0D0A80ED080A94ED0A0A80EDB4
:1032F000090A94ED010A80ED0A0A94ED1A0A80ED9C
:103300000C0A94ED150A80ED0D0A94ED0E0A80ED7D
:103310000E0A94ED090A80ED0F0A94ED020A80ED81
:10332000100A94ED1B0A80ED120A94ED140A80ED48
:10333000130A94ED0F0A80ED140A94ED080A80ED4B
:10334000150A94ED030A80ED160A94ED1C0A80ED2F
:10335000180A94ED130A80ED190A94ED100A80ED15
:103360001A0A94ED070A80ED1B0A94ED040A80ED19
:103370001C0A94ED1D0A80ED1E0A94ED120A80EDE0
:103380001F0A94ED110A80ED200A94ED060A80EDE3
:10339000210A94ED050A80ED220A38BD30B599B0B6
:1033A00040F2E841C2F2000101F15000B1F874109E
:1033B000006AFCF7D0FF002818BF012048F28051B6
:1033C000C2F2000191F86010884214BF0120002071
:1033D00080F0010540F2E841C2F2000101F128004D
:1033E000B1F84C10006AFCF7B6FF00280CBF0120B2
:1033F000002048F28051C2F2000191F8301088425A
:1034000014BF0124002440F2E840C2F20000818C85
:10341000006AFCF7A0FF00280CBF0121002148F240
:103420008050C2F200000078814214BF01220022C5
:1034300040F20910C2F20000007800EB00104EF6D6
:10344000D151C0F60101084423464FF23051C0F675
:103450000101CDE9005002A807F04EF802A805F0DE
:10346000DAF919B030BD2DE9F047B4B04D2142F280
:103470005020C2F2000007F069F9002804BF34B000
:10348000BDE8F0874D2142F25020C2F2000007F063
:103490005DF940F23014C2F20004A0610021401C2A
:1034A0000AF0AEFA51EC100B0AF0F6FE00254FF4CC
:1034B0008053C4F201037A2800F05C812ADC4FF0CB
:1034C000010140F21016C2F2000670286FD018DC1D
:1034D0004FF0190225286CD006DC222818BF2328BB
:1034E00045D024284DD03EE0262875D0282804BF9A
:1034F0004FF2F450C0F6010000F01482692878D031
:1035000031E0713809282ED24FF27C61C0F60101FA
:10351000D1E800F040F28A22A0F28A21904200F025
:10352000258209DCA0F188000B281CD24FF28561AE
:10353000C0F60101D1E800F0FA2904BF34B0BDE8BB
:10354000F08708DC02297AD0032900F029820429B7
:1035500000F02B8207E0FB2900F0E881A1F58070E4
:103560005D3800F0EF8134B00020BDE8F0874FF205
:103570008450C0F6010005F04EF934B00120BDE8DA
:10358000F087207968B9E170217162714FF40061B0
:103590001846FCF7E9FE4FF28C50C0F6010000F02F
:1035A000C1B94FF29450C0F6010000F0BBB98BE0F6
:1035B000FFE720790028F4D1E570217162714FF4A2
:1035C00000611846FCF7D0FE4FF28C50C0F60100A7
:1035D00000F0A8B900E00CE040F24C40C2F200005C
:1035E00002684FF29C51C0F6010106A806F084FF64
:1035F00097E040F22640C2F20000B0F9004042F2EB
:103600009070C2F2000001F05AFA064640F22840DB
:10361000C2F20000B0F9005042F6E800C2F2000029
:1036200001F04DFA334622464FF26851C0F60101CF
:10363000CDE900501DA806F05FFFA3E0FFE74FF4BF
:1036400000600021C4F20000FDF74EF94FF28451F2
:10365000C0F6010106A806F04FFF62E040F6841AAA
:10366000C2F2000ADAF80C000BF06EFA80468946C6
:10367000DAF808000BF068FA06460F46DAF804009C
:103680000BF062FA04460D46DAF800000BF05CFA23
:1036900041EC100B53EC102B4FF2A851C0F6010176
:1036A0008DE8F00306A806F027FF3AE03088C0F165
:1036B00040024FF2EC41C0F6010106A806F01CFFE3
:1036C0002FE0FFF76BFE2FE104F05CFCFEF7C4F87F
:1036D0004FF4006035800421C4F20100FCF744FE81
:1036E0004FF2C450C0F6010005F095F8012034B047
:1036F000BDE8F08722E014E006E0EEE0DBE0CDE09C
:10370000B4E076E05BE042E040F2F830C2F2000064
:10371000007858B14FF22851C0F6010106A806F012
:10372000EBFE06A805F077F80120E0E74FF2205104
:10373000C0F6010106A806F0DFFEF2E740F2A34062
:10374000C2F20000007840F2A441C2F20001097800
:10375000884207D14FF22851C0F601011DA806F09A
:10376000CBFE0FE04FF22051C0F601011DA806F07C
:10377000C3FE07E040F20910C2F2000000780328FF
:10378000F0D0E7E71DA805F046F80120AFE7532188
:1037900042F25020C2F2000006F0D8FFA0610028DB
:1037A0007BD00021401C0AF02BF951EC100B0AF0E1
:1037B00073FD01B242F29070C2F2000016E0532194
:1037C00042F25020C2F2000006F0C0FFA0610028C3
:1037D00063D00021401C0AF013F951EC100B0AF0E1
:1037E0005BFD01B242F6E800C2F2000001F070F9A0
:1037F00093E0532142F25020C2F2000006F0A6FFEF
:10380000A06158B10021401C0AF0FAF851EC100BED
:103810000AF042FD002818BF0120A071502142F299
:103820005020C2F2000006F091FFA061002818BFEE
:10383000FFF714FD542142F25020C2F2000006F0BE
:1038400085FFA06158B10021401C0AF0D9F851EC65
:10385000100B0AF021FD002818BF0120E0714FF283
:103860008450C0F6010004F0D6FF40E7532142F235
:103870005020C2F2000006F069FFA0610028EED0DF
:103880000021401C0AF0BCF851EC100B0AF004FDBA
:10389000002818BF0120A071E1E73EE040F2FA30B5
:1038A000C2F2000005704FF28451C0F6010106A873
:1038B00006F022FE35E740F22C10C2F2000000783C
:1038C00040F2FA31C2F2000108704FF28451C0F6A2
:1038D000010106A806F010FE23E7532142F2502012
:1038E000C2F2000006F032FFA061B0B10021401C1E
:1038F0000AF086F851EC100B0AF0CEFCC1B240F28F
:10390000FA30C2F20000017040F22C12C2F2000242
:103910001170642924BF642101704FF28450C0F6F5
:10392000010000BF04F077FF0120E0E64FF20852EB
:10393000C0F601024FF21851C0F601011DA806F0B1
:10394000DBFD1FE742F6E800C2F2000090F86830A5
:1039500042F29070C2F2000090F868204FF2CC5111
:10396000C0F6010106A806F0C7FDDAE640F2180429
:10397000C2F20004606A0BF0E7F805460E46206AC2
:103980000BF0E2F841EC100B53EC102B4FF2E0512E
:10399000C0F60101CDE9005606A806F0ADFDC3E76B
:1039A00010211846FCF7DEFCB7E710211846FCF79B
:1039B000DBFCB2E72DE9F0479AB017AF00254FF0D6
:1039C000010842F25026C2F2000640F23014C2F260
:1039D000000442F29819C2F2000940F20E1AC2F233
:1039E000000A3DE004F009FFA0720A281EBF0D285E
:1039F00021695F292ADB206900281CBF355400207B
:103A000014D031184978202904D03954401CC0B250
:103A10000428F6D33D5417AA4FF2FC51C0F6010119
:103A2000684606F069FD607A70B906E0607A0028A1
:103A300018BF65721AB0BDE8F0876572BAF8000069
:103A400009F8005084F80880256109E03B2808BF88
:103A500084F8098004D0627A12B97054481C20613D
:103A600004F0C5FE002804BF1AB0BDE8F087207A34
:103A70000028B7D01AB0BDE8F087F0B597B0FFF7CF
:103A800099FF40F23014C2F20004207A002804BFEB
:103A900017B0F0BD0025E56020780628A07801D099
:103AA00038B103E0002804BF17B0F0BDA57017B00F
:103AB000F0BDFFF7D8FC10B1257217B0F0BD40F291
:103AC0001016C2F200063088402844D2012080F34C
:103AD000108840F20E17C2F20007388800EB400051
:103AE00040F69811C2F2000101EB401042F2502161
:103AF000C2F2000106F034FEE17A42F2B022C2F2D4
:103B0000000238881154401C00F03F003880308893
:103B1000401C80B23080C0F140024FF2EC41C0F650
:103B20000101684606F0E8FC684604F074FE0020D7
:103B300080F31088318801204029BDD340F2011163
:103B4000C2F2000108704FF400600421C4F20100C9
:103B5000FCF708FCB0E74FF2F440C0F6010004F0B7
:103B60005AFE17B0F0BD40F24C10C2F200000078CF
:103B70007047002140F24C10C2F2000041608160A9
:103B80000170704740F24C10C2F20000D0E9011001
:103B90008142B4BF01200020704740F24C11C2F2B4
:103BA0000001D1E901208242A4BF00207047C8680B
:103BB000805C521C4A607047002040F24C11C2F2F7
:103BC00000010870704710B5012040F2F331C2F2D5
:103BD00000010870322000F031FABDE810403220B8
:103BE00000F02CBA10B54FF4FA7000F027FA32202A
:103BF00000F024FA322000F021FABDE81040E2E79C
:103C000038B501210846FCF70BFD01210820FCF71F
:103C100007FD4FF400700121C0F23000FCF7A6FB55
:103C20001020ADF800008DF8030003204FF440642D
:103C30008DF80200C4F2010469462046FCF734FB0B
:103C400010212046FCF790FB38BD0000002080F3D7
:103C5000108862B600204EF60851CEF20001C0F680
:103C600001000860FDF7F9FA0124FFF782FFFDF774
:103C7000F3FDFDF7B8FD04F07BF904F083F920466D
:103C8000FDF746FB04F007F845F25550FDF7BAF88A
:103C90000620FDF7BDF840F20D30FDF7BFF8FDF747
:103CA000C3F8FDF7C9F800BFFFF7E7FEFFF719FA01
:103CB00005F017FC06F017FBFDF75CFCFDF7B4F808
:103CC000F2E77047FEE7FEE7FEE7FEE77047704762
:103CD00000F02DB810B5002442F27030C2F200009E
:103CE0000460047184600473046104758461047762
:103CF0000420FDF7EEF840F20000C2F20000006878
:103D000042F21071B0FBF1F0411EB1F1807F28BF8B
:103D100010BD4FF0E02041614EF20F02CEF20002E2
:103D2000F02182F8141D84610721016110BD2DE985
:103D3000F04140F20C00C2F2000001686431016001
:103D400042F27030C2F200000179012641B90168E7
:103D500031B10168491E01600168002908BF067180
:103D600042F27031C2F200010A7B01F1080042B94F
:103D7000026832B10268521E02600268002A08BF5F
:103D8000067101F110000A7D42B9026832B1026881
:103D9000521E02600268002A08BF067101F1180075
:103DA000097F41B9016831B10168491E01600168AC
:103DB000002908BF067140F2F834C2F20004E0683E
:103DC000401CE060E0686FF000410025884208BFB9
:103DD000E560E0794FF40067401CC1B2E171A07862
:103DE000C4F20107814204D810213846FCF7BAFA20
:103DF00007E0642988BFE57103D810213846FCF735
:103E0000B3FAA079401CC0B2A071322830D3A5719A
:103E100040F23410C2F20000017811B340F23511C3
:103E2000C2F200010A78521E12F0FF020A7008BFA7
:103E300005701DD040F23310C2F2000000784FF43C
:103E400080510028384602D0FCF78EFA01E0FCF7DA
:103E500089FA607930B165714FF400413846FCF75A
:103E600081FA05E066714FF400413846FCF77CFAB0
:103E700008213846FCF76FFA012818BFE57009D110
:103E8000E078401CC0B2E070642803D36520E07085
:103E9000267100E025714FF440608021C4F20100DA
:103EA000FCF759FA00281EBF25812570BDE8F08176
:103EB000208941F28831401C80B22081884224BF91
:103EC00025812670BDE8F081012898BF02200121DC
:103ED00081F3108842F27031C2F2000108600020C4
:103EE000087180F3108808790128FCD1704730B53B
:103EF00085B04FF4E060FCF7A7FF36208DF8100086
:103F000000248DF8114001258DF812508DF81350C2
:103F100004A8FCF7A3FF32208DF810008DF81140A3
:103F200002208DF812008DF8135004A8FCF796FFBC
:103F300037208DF810008DF8114005208DF8120003
:103F40008DF8135004A8FCF789FF01211020FCF71D
:103F500073FB40F20000C2F20000006848F28041AA
:103F6000C0F21E01B0FBF1F0401EADF800004FF4AE
:103F7000FA616802ADF804104FF48055ADF8060000
:103F8000C4F20005ADF8024069462846FCF760FB24
:103F9000012211462846FCF77EFC01212846FCF749
:103FA00066FC286840F00100286001210820FCF729
:103FB00043FB6320ADF804004720ADF800004FF448
:103FC0004065C4F20005ADF80640ADF80240694610
:103FD0002846FCF73DFB012211462846FCF75BFC16
:103FE00001212846FCF743FC286840F001002860C6
:103FF00001212020FCF720FB0920ADF8040041F648
:104000001F40ADF80000ADF80640ADF802404FF497
:10401000A054C4F2000469462046FCF719FB0122B3
:1040200011462046FCF737FC01212046FCF71FFC17
:10403000206840F00100206005B030BD31B44FF081
:10404000E0240022D4F814C00098A16900EBC0005D
:10405000C300A0698842FCD026BFACEB0005294410
:10406000091A0A4401469A42F3D338BC704710B586
:104070004FF48054C4F2000401212046FCF737FCC1
:10408000002808BF10BD01212046FCF73BFCBDE81D
:10409000104004F099BA10B54FF44064C4F2000423
:1040A00001212046FCF723FC002808BF10BD012198
:1040B0002046FCF727FCBDE8104004F0C4BA10B558
:1040C0004FF4A054C4F2000401212046FCF70FFC79
:1040D000002808BF10BD01212046FCF713FC40F268
:1040E000F831C2F200014889401C82B24A814B7803
:1040F0004FF40060C4F201009A4204D8BDE81040B9
:104100004021FCF72FB9FF2A82BF0020488110BD53
:104110004021BDE81040FCF727B900002DE9F0412F
:10412000012186B08803FCF77BFA01210420FCF70B
:1041300077FA01210420FCF773FA0121C804FCF787
:104140007BFA01211020FCF76BFA4FF480644FF4E6
:104150000068ADF810400426C4F201088DF8136021
:1041600004A94046FCF7A0F86010ADF81000032544
:104170008DF8125018278DF8137004A94046FCF7EB
:1041800093F8ADF810408DF812504FF480508DF830
:10419000137004A9C4F20100FCF786F800244FF460
:1041A000E1300090ADF808400C204FF46057ADF8B6
:1041B0000440ADF80A00C4F20107ADF80640ADF8BE
:1041C0000C4069463846FCF7A2FB4FF416500090AD
:1041D000ADF8084008204FF49848ADF80440ADF819
:1041E0000A00C4F20008ADF80640ADF80C4069467C
:1041F0004046FCF78CFB002240F226613846FCF773
:10420000E3FB002240F225513846FCF7DDFB00229B
:1042100040F227713846FCF7D7FB012240F22441D7
:104220003846FCF7D1FB01213846FCF7C4FB40219E
:104230003846FCF7F4FB012240F226614046FCF7C9
:10424000C3FB002240F225514046FCF7BDFB002293
:1042500040F227714046FCF7B7FB002240F22441B0
:104260004046FCF7B1FB01214046FCF7A4FB40218E
:104270004046FCF7D4FB25208DF814008DF815403E
:104280008DF8166001268DF8176005A8FCF7E6FD8D
:104290000E208DF814008DF815408DF816508DF80D
:1042A000176005A8FCF7DAFD06B0BDE8F0812DE93E
:1042B000F04701218CB00846FCF7A6F94FF0440AFC
:1042C000C4F2020A5046FCF7D3FB43F60405C4F2DD
:1042D000010542F29030C2F20000CDE900501020FA
:1042E000460102900024CDE903648027CDE90574DE
:1042F0004FF40058CDE908480794694650460A949F
:10430000FCF760FC012202215046FCF78EFCA5F16F
:104310000409012280214846FCF76EFB002150462B
:10432000FCF779FC4FF0580AC4F2020A5046FCF739
:104330009FFB42F29050C2F200000095CDE90104CB
:10434000CDE90364CDE905742020CDE90740CDE92E
:10435000098469465046FCF735FC01224021484655
:10436000FCF74AFB01215046FCF755FC0CB0BDE8B8
:10437000F08710B5FFF7D2FEFFF799FF002040F25B
:104380000841C2F20001487010BD2DE9F0414FF420
:104390006058C4F20108002440F224414046FCF772
:1043A00041FB002808BFBDE8F08100215827C4F276
:1043B00002073846FCF72FFC3846FCF740FCC0F5F6
:1043C0000070C5B2002D84BF42F29056C2F20006C2
:1043D00013D00AD9315D48F2D060C2F2000004F077
:1043E00052FA601CC4B2A542F4D84FF4007142F2F4
:1043F0009050C2F2000006F06DFA4FF4007138469A
:10440000FCF71BFCB8F8000043F60400C4F20100FE
:1044100000883846BDE8F0410121FCF7FCBB10B52F
:104420000024C4F2020421464FF40030FCF70AFCD9
:10443000002808BF10BD2146BDE810404FF40030F1
:10444000FCF707BC10B50021C4F202014FF4005084
:10445000FCF7FFFB44200021C4F20200FCF7DBFB69
:10446000002040F20841C2F20001087010BD70B592
:104470000D460446012140F20843C2F200031970C0
:10448000490242F29030C2F2000006F023FA2A46B6
:10449000214642F29030C2F2000006F0A4F9442412
:1044A000C4F2020400212046FCF7B5FB2946204651
:1044B000FCF7C3FB2046BDE870400121FCF7ABBB15
:1044C0002DE9F04100240D46064605234FF0070C68
:1044D00020460821C0F1070203FA02F202F080022E
:1044E00004F08007974214BF8CEA44026200D4B201
:1044F000401C491EEED100234FF0070C184608213E
:10450000C0F1070203FA02F202F0800204F0800711
:10451000974214BF8CEA44026200D4B2401C491E88
:10452000EED1002046F080034FF0070C5FF0080149
:10453000C0F1070203FA02F202F0800204F08007E1
:10454000974214BF8CEA44026200D4B2401C491E58
:10455000EED12B0E00204FF0070C0821C0F107020E
:1045600003FA02F202F0800204F08007974214BFBF
:104570008CEA44026200D4B2401C491EEED10020F5
:10458000C5F307434FF0070C5FF00801C0F10702C5
:1045900003FA02F202F0800204F08007974214BF8F
:1045A0008CEA44026200D4B2401C491EEED10020C5
:1045B000C5F307234FF0070C5FF00801C0F10702B5
:1045C00003FA02F202F0800204F08007974214BF5F
:1045D0008CEA44026200D4B2401C491EEED1002095
:1045E000EBB24FF0070C0821C0F1070203FA02F208
:1045F00002F0800204F08007974214BF8CEA440264
:104600006200D4B2401C491EEED14FF49847C4F268
:10461000000740213846FCF702FA05213846FCF72E
:10462000F3F940213846FCF7F3F90028F9D00021CE
:104630003846FCF7E9F940213846FCF7E9F900284B
:10464000F9D046F080013E463846FCF7DDF94021BE
:104650003046FCF7DDF90028F9D04FF6FF7000EA8C
:1046600025613046FCF7D0F940213046FCF7D0F9FF
:104670000028F9D0290C3046FCF7C6F94021304615
:10468000FCF7C6F90028F9D0C5F30F213046FCF736
:10469000BBF940213046FCF7BBF90028F9D0E9B25C
:1046A0003046FCF7B1F940213046FCF7B1F900285B
:1046B000F9D021463046FCF7A7F940213046FCF7F7
:1046C000A7F90028F9D0BDE8F08110B54FF4EC71DE
:1046D0000020FFF7F5FE40F60331C0F20A0110207A
:1046E000FFF7EEFE80211120FFF7EAFE48F2842159
:1046F000C1F200416C20FFF7E3FE40F62461BDE803
:104700001040CCF60D017020DAE610B54FF4EC71D4
:104710000020FFF7D5FE41F60C01C0F20A0110207F
:10472000FFF7CEFE80211120FFF7CAFE48F2842158
:10473000C1F200416C20FFF7C3FE40F62461BDE8E2
:104740001040CCF60D017020BAE610B54FF4EC71B4
:104750000020FFF7B5FE40F60341C0F20A01102029
:10476000FFF7AEFE40F28321C1F200416C20FFF75B
:10477000A7FE2421BDE81040CCF20D1170209FE669
:1047800010B54FF4EC710020FFF79AFE40F60331AC
:10479000C0F20A011020FFF793FE40F28321C1F21C
:1047A00000416C20FFF78CFE2421BDE81040CCF2C4
:1047B0000D11702084E6000030B58BB0012104207B
:1047C000FBF72EFF01210420FBF72AFF01210846F9
:1047D000FBF726FF01210846FBF72EFF0220ADF86C
:1047E000100018208DF813004FF400650324C4F264
:1047F00001058DF8124004A92846FBF755FD8020DD
:10480000ADF8100010208DF813008DF8124004A9A7
:104810002846FBF749FD80212846FBF7A5FD01212D
:104820000846FBF709FF0A20ADF818000024FF2016
:10483000ADF81C00ADF81A40ADF81E408DF82040D0
:1048400006A9E804FBF704FF6020ADF80000012092
:10485000ADF80200ADF808400820ADF80A004001AC
:10486000ADF80C00ADF80440ADF80640ADF80E40D0
:1048700069468005FBF78CFF01218807FBF7F7FFEE
:1048800001218807FBF7FCFF6946E804FBF780FF7E
:104890000821C806FCF710F801218807FCF703F887
:1048A00001218807FBF7E3FF0BB030BD10B500F026
:1048B0006CFC002140F20C40C2F2000001804180FB
:1048C00010BD38B501210420FBF7AAFE0121042008
:1048D000FBF7A6FE01211020FBF7A2FE4020ADF859
:1048E000000010248DF8034003204FF400658DF87C
:1048F0000200C4F2010569462846FBF7D5FC4021B9
:104900002846FBF731FD04204FF48055ADF8000038
:10491000C4F2010569462846FBF7C6FC0421284677
:10492000FBF722FDADF8004069462846FBF7BCFCCA
:1049300010212846FBF716FD38BD70B500252DED7A
:10494000048B8584C584058580F8901080F86550B7
:1049500080F8665080F86850044680F867506C30E4
:10496000FCF704FF04F17C00FCF700FF84F88C5096
:1049700084F82A5084F88E5084F88F5040F2180042
:10498000C2F2000090ED269AD0ED278A90ED288A99
:1049900004F13000FCF76BFEB5EEC09AF1EE10FAB0
:1049A00001BFF5EEC08AF1EE10FAB5EEC08AF1EE65
:1049B00010FA0AD143F23330C3F6B36008EE900A1E
:1049C000002008EE100AB3EE0E9A84ED0C9AC4EDA6
:1049D0000D8A84ED0E8A002104F13000FCF7B3FE4D
:1049E000BDEC048B20464AF22011BDE87040C0F2B5
:1049F0000701FCF7BFBE70B50E002DED048B044619
:104A000058D094F890000025A584E584258584F885
:104A1000900084F8655084F8665084F8685084F8F3
:104A2000675004F16C00FCF7A1FE04F17C00FCF778
:104A30009DFE84F88C5084F82A5084F88E5084F8B7
:104A40008F5040F21800C2F2000090ED269AD0ED8F
:104A5000278A90ED288A04F13000FCF708FEB5EEB5
:104A6000C09AF1EE10FA01BFF5EEC08AF1EE10FA2D
:104A7000B5EEC08AF1EE10FA0AD143F23330C3F634
:104A8000B36008EE900A002008EE100AB3EE0E9A0A
:104A900084ED0C9AC4ED0D8A84ED0E8A002104F198
:104AA0003000FCF750FE4AF22011C0F20701204608
:104AB000FCF760FE84F88F60BDEC048B70BD90F84D
:104AC0008E10002914BFB0F92800C06D00B27047E5
:104AD00070B50D4690F89010044602290CBF822054
:104AE0004FF48C708542C8BF054602DC002DB8BF6C
:104AF0000025022902BF40F20A40C2F200000580F0
:104B0000002D07DD40F20800C2F20000017821F01C
:104B100040010170002084F82A0094F865100029F3
:104B200004BF94F88F10002907D004F13000BDE8CD
:104B300070404FF00001FCF706BEA18CE18484F8C0
:104B40008C0084F867001E2D1EDDB4F92400401D82
:104B5000A842BCBFB4F92400322808DA4FF4B441AB
:104B6000C0F2622104F17C00FCF704FE03E004F1D2
:104B70007C00FCF7FBFD4FF42341C1F2E11104F18D
:104B80006C00FCF7F7FD07E004F16C00FCF7EEFDAC
:104B900004F17C00FCF7EAFD294604F13000BDE891
:104BA0007040FCF7D0BD90F88E10002904BF90F83B
:104BB0008F10002904D1B0F92410B1F5806F01DB0A
:104BC0000020704790F82A1069B9B0F92420C16D0F
:104BD0008B1E9A4207DBB0F92420891C9142A4BFA6
:104BE000012180F82A1090F82A007047C16D002931
:104BF00023DD90F88E20002A04BF90F88F20002A31
:104C000015D1B0F92420B2F5806F10DA90F82A207F
:104C10009AB9B0F924208B1E9A4208DBB0F92420FF
:104C2000891C8A42DCBF012180F82A1005DD90F83A
:104C30006500002804BF012070470020704790F8ED
:104C40008E20002A14BFB0F92810C16D09B2B0F946
:104C50002430994222DA002A04BF90F88F100029EC
:104C600016D1B0F92410B1F5806F11DA90F82A103E
:104C7000A1B9B0F92420C16D8B1E9A4208DBB0F9AE
:104C80002420891C8A42DCBF012180F82A1005DD1E
:104C900090F86500002804BF01207047002070478D
:104CA000C26D90F89000012811D0022804BF40F294
:104CB0002840C2F2000008D0032808D0042804BF0E
:104CC00040F22640C2F2000001D1B0F900108A4241
:104CD000CCBF501A881A00B270472DE9F04190F805
:104CE0008F100446002918BFBDE8F08194F8901099
:104CF00001290AD0022906D0032906D0042908BFB9
:104D000000F05CFB01E000F02FFB012588B30128D7
:104D100014BF0228BDE8F081042894F8660000F171
:104D20000100C0B284F8660032D002281CD90220EB
:104D300084F8680084F8655000212046FFF7C8FE1B
:104D400094F89000002101281CBF0228032805D0F8
:104D5000042804BF4FF08040FBF7C4FD94F8901086
:104D600094F86800FCF766FB40F20140A084BDE8BF
:104D7000F081FFE7002784F8667094F8900001281E
:104D800029D002282BD0032825D004281DD022E0CA
:104D9000022898BFBDE8F081202084F8680084F8DC
:104DA000655000212046FFF793FE94F89000002103
:104DB00001281CBF0228032857D0042855D100BF62
:104DC0004FF08040FBF78EFDB6E040F22640C2F285
:104DD00000000088A08494F88E0030B3CAE040F24E
:104DE0002841C2F200010888A084B1F9003040F2E5
:104DF0000A40C2F20000B0F900204FF40060C4F293
:104E000001009A42C8BF002A04DDBDE8F0418021BC
:104E1000FBF7A8BAB1F900109142B8BFBDE8F08124
:104E20008021BDE8F041FBF79FBA94F86760B4F9C0
:104E30002400B0F5967F19DD701CC0B284F86700BD
:104E4000022813D9042084F8680084F865500021F2
:104E50002046FFF73DFE94F89000002101281CBF7A
:104E60000228032868D00428AAD065E094F88C00B2
:104E700058BB04F17C00FCF78BFC30B3B4F9240080
:104E8000B4F92610491D8842A8BF84F88C501CDA5A
:104E900094F86700401CC0B284F86700022814D957
:104EA000082084F8680084F8655000212046FFF748
:104EB0000FFE94F89000002101281CBF022803284F
:104EC0003AD004283FF47CAF36E004F16C00FCF7E4
:104ED0005FFCE8B394F88E00002804BF94F88F00BC
:104EE000002841D1B4F92400B0F5806F3CDA94F881
:104EF0002A0048B3B4F92400E16D1E39814233DD44
:104F000094F86700401CC0B284F8670002282BD9CF
:104F1000102084F8680084F8655000212046FFF7CF
:104F2000D7FD94F89000002101281CBF0228032817
:104F300002D004283FF444AF94F8901094F868002D
:104F4000BDE8F041FCF776BAB4F92410E06D00E05A
:104F50000AE0821E914207DBB4F92410801C8842CB
:104F6000A8BF84F82A50C5DA94F86700B04208BF99
:104F700084F8677094F86500002818BFBDE8F081D8
:104F80004AF22011C0F207012046FCF7F3FBB4F906
:104F90002410E06D401A94F86410B9B10F2808DAB3
:104FA00084F8647004F13000FCF755FB94F8640059
:104FB00088B194F8900002281DBF7F2101280328A2
:104FC000BDE8F08104282FD0BDE8F0811928C8BFC2
:104FD00084F86450EDDCE16D0020C1B1B4F9240027
:104FE00000EE100A04F13000B8EEC00AFCF74FFBE7
:104FF00094F89010022903D0002806DA002006E079
:105000003328FBDBE62802DD14E07F2814DC94F86B
:10501000902081B2012A1ABF022A032ABDE8F0813A
:10502000042A18BFBDE8F0814FF08040BDE8F04190
:10503000FBF758BCE620EAE77F20E8E770B50446B6
:1050400090F88F00002818BF70BD94F88E208A4217
:1050500008BF70BD002600293ED0E06D0028D8BFF3
:1050600070BD0125B2B9B4F92410B1F5806F11DA21
:1050700094F82A10002918BF70BDB4F92410831EBB
:10508000994207DBB4F92410831C9942DCBF84F8F1
:105090002A5070BD94F86510002918BF70BD002A11
:1050A00018BFB4F928002085B4F92400B0F5806F4A
:1050B000B4BFB4F9241000212046FFF709FD04F124
:1050C0006C00FCF753FB04F17C00FCF74FFB84F809
:1050D0002A6084F88E5070BDB4F928102046FFF77E
:1050E000F7FC84F88E6070BD40F21801C2F2000136
:1050F00091F8AF104160A1F10A02C0E902120A3131
:1051000001610121017000210175704770B5B0F98E
:10511000245090F8941000F19404002908BF70BD49
:105120004FF480526168C4F20102A94218DAB5F561
:10513000806F15D090F89000032805D0042803D183
:1051400004211046FBF70EF9207D20B92069A84202
:10515000C8BFE06802DC01202075A068606070BDF7
:1051600090F89000032805D0042803D104211046AC
:10517000FBF7FAF8207D00281CBFE068A842A3BF17
:1051800000202075A0682069E8E740F6624140F2FF
:105190001040C2F20000418143F6624181817221D8
:1051A000C1810021C180018181800182C1700170B3
:1051B000417078218170704740F21040C2F20000C7
:1051C000007C704770B540F21044C2F20004607871
:1051D0000025002818BF012815D0022806D100207C
:1051E0004FF49672022100F032F8A080607820829D
:1051F00020786070002808BF012023D0012818D033
:10520000022821D021E04FF496720121284600F0B7
:105210001EF8B0F5967FC4BF0420E070E6DCA188DC
:105220000844617800B200290CBFE0802081E5705D
:10523000DCE7A078401CC0B2A070782824BFA5701D
:10524000022001D3207000E02570012070BD2DE9FF
:10525000F00F064600234FF03B0C1D2040F2224485
:10526000C2F20004675C4FF22805C0F6010505F59F
:10527000F07805F53279A5F5F07ABFB15FEA010B58
:1052800008BF05EBC00410D0BBF1010F08BF08EB4D
:10529000C0040AD0BBF1020F08BF09EBC00404D060
:1052A000032908BF0AEBC00400D12468B44207DD1B
:1052B000844603EB0C0000EBD07040F3470005E0A0
:1052C0000346604400EBD07040F347009842D4DCC2
:1052D000C7B15FEA010B08BF05EBC30410D0BBF1F7
:1052E000010F08BF08EBC3040AD0BBF1020F08BFCF
:1052F00009EBC30404D0032908BF0AEBC30401D19E
:10530000D4E90004AFB1002908BF05EBCC010ED0F1
:10531000012908BF08EBCC0109D0022908BF09EB1D
:10532000CC0104D0032908BF0AEBCC0101D1D1E99B
:1053300000580BB9B04212DCBCF13B0F01D1B542B1
:105340000DDB331AA8EB04015943281A91FBF0F046
:10535000204400B28242A4BFBDE8F00F704710465F
:10536000BDE8F00F7047000010B50021084642F676
:10537000F812C2F2000200BF02EB80035B88401CFF
:10538000C0B219441428F7D346F26760C6F26660CB
:1053900080FB0110C110A1EBE0704FF49672032165
:1053A000FFF755FF40F22641C2F200014880B1F9F3
:1053B00002008228CCBF0420002010BD002110B5BF
:1053C000084642F69412C2F2000200BF32F82030C2
:1053D000401CC0B219441428F8D346F26760C6F2E4
:1053E000666080FB0110C110A1EBE07041F25C210E
:1053F000414340F6FF72101A91FBF0F04FF49672A1
:105400000021FFF724FF40F22641C2F2000108808C
:10541000B1F90000B0F5967FACBF0420002010BDAC
:10542000F0B585B001214FF44050FBF7EDF80024B2
:105430004FF460270126CDE902744FF400658DF822
:105440000440C4F2020500948DF805608DF81060E8
:1054500069462846FBF7FFFB0120FBF79EFC012273
:10546000072311462846FBF744FC01212846FBF799
:1054700018FC2846FBF727FC20212846FBF7A5FC53
:105480000028F9D02846FBF71EFC2846FBF720FC35
:105490000028FAD101212846FBF722FCCDE902744D
:1054A0008DF8044000944FF44064C4F202048DF877
:1054B00005608DF8106069462046FBF7CCFB0120A3
:1054C000FBF76BFC0723012202212046FBF711FCAE
:1054D00001212046FBF7E5FB2046FBF7F4FB2021EA
:1054E0002046FBF772FC0028F9D02046FBF7EBFBC7
:1054F0002046FBF7EDFB0028FAD101212046FBF7FF
:10550000EFFB05B0F0BD2DE9F04F8BB00121042079
:10551000FBF786F80320FAF7EFFF07210020FBF7DF
:105520005BFC2120ADF8000000244FF400608DF8F2
:1055300003406946C4F20100FAF7B6FEFFF770FFB8
:1055400001210846FBF760F84FF0080BC4F2020B8C
:105550005846FBF78DFA40F64C00C4F2020000906A
:1055600042F69410C2F2000028250395CDE901040B
:10557000802604A877004FF480684FF020094FF48C
:10558000005A80E8D007694658460A94FBF71AFB90
:105590004FF400600121C4F20200FBF78BFB0121F4
:1055A0005846FBF738FB4FF0940BC4F2020B5846F9
:1055B000FBF75EFA40F64C40C4F20200009042F65F
:1055C000F810C2F200000395CDE9010404A8694671
:1055D00080E8D00758460A94FBF7F4FA4FF440608D
:1055E0000121C4F20200FBF765FB01215846FBF7DD
:1055F00012FB0BB0BDE8F08F10B540F2E842C2F2EA
:10560000000200EB400148F28053C2F2000303EBBA
:10561000011400EB800102EBC10100280A6A898CA9
:1056200018BF0128104609D0FAF795FE002818BFC8
:105630000120217888420AD0012010BDFAF78BFEA4
:1056400000280CBF0120002021788842F4D10020DE
:1056500010BD30B4DDF808C0BCF1000F14BF012448
:10566000002400EB400548F28050C2F2000000EB3D
:105670000510002C80F8234004BF30BC7047541044
:10568000644244620176C0F82CC0C261002B0CBF9A
:1056900001214FF0FF3180F8211083F0010180F8E3
:1056A00022100021816230BC70472DE9F04105468F
:1056B00000EB450148F28050C2F2000000EB0114FB
:1056C00094F82300002808BFBDE8F081E16A606A11
:1056D000084460620028C6BFA26A9142BDE8F0811A
:1056E000E169401A606294F8200048F27066C2F2E4
:1056F0000006B8B194F8211040F2DE40C2F200007A
:1057000000EB4500012930F8061C0CBF491C491E5E
:1057100020F8061C56F825000CBF401C401E46F819
:10572000250038E0607894F82210002818BF81F036
:10573000010105EB850040F2E842C2F2000202EBF3
:10574000C00000298189806802D0FAF70BFE01E0D1
:10575000FAF70AFE0220401C2428FCDB94F8220001
:10576000002740F2E248C2F20008012D18D0291E9D
:1057700028D0022D38D050B156F8250094F82110C9
:10578000012918BF4FF0FF31084446F825000021D9
:10579000284601F013F8A06A401CA062BDE8F08121
:1057A00038B92846FFF728FF002818BF88F801708D
:1057B000EDD10121284601F001F80220401C4828C3
:1057C000FCDBD9E738B10846FFF716FF002818BF01
:1057D00088F80070DBD10121284600F0EFFF02209D
:1057E000401C4828FCDBC7E740F23611C2F200013A
:1057F000097849B140F2FC31C2F200010978014355
:1058000031EA00000ED016E018B12846FFF7F4FE8A
:1058100088B10121284600F0D1FF0220401C482811
:10582000FCDBA9E70121284600F0C8FF0220401C4C
:105830004828FCDBA0E788F80270A8E72DE9F84FBC
:1058400040F22C44C2F20004D4F83C9048F270605C
:10585000C2F20000D9F81C100160D9F82010416094
:10586000D9F824108160D9F82810C160D9F82C101B
:10587000016199F83E002070A07B002640F2DE45D1
:10588000C2F2000500282CD004F11602D9F810103D
:10589000901D00291CBF017800290DD0137840F21B
:1058A0006C41C2F20001002BB1F900102B8814BF2B
:1058B000591A194429800670D9F8141000291CBF00
:1058C000417800290DD0527840F26C41C2F20001BB
:1058D000002AB1F902106A8814BF511A1144698074
:1058E00046702665B9F87000082380B2010A0227C5
:1058F0004FF0040C4FF0010E4E2942D99C2994BF61
:10590000C00841F28830237348F28048C0F21E0874
:10591000B8FBF0F081B26183207B607399F884203A
:105920004FF48050C4F20000002A4CD0D9F88820EF
:10593000D9F87810D9F894A0A2EB01098A1A09EBDA
:10594000490BC2EB02124FEA0B2BD201C4E917B28A
:1059500009EB890212026266CA01C4E91A2A89B2F5
:105960000A0AE6724E2A1DD99C2A94BFC90841F240
:1059700088312373B8FBF1F189B2E164FAF7B0FF23
:1059800023E0272984BF800884F80CC0BCD81329E1
:1059900084BF40082773B7D8202838BF202084F858
:1059A0000CE0B1E7272A84BF890884F80CC0E1D84D
:1059B000132A84BF49082773DCD8202938BF202147
:1059C00084F80CE0D6E7FAF78BFFE06B90F83C1018
:1059D000A17290F89D002A8840F2B951C2F20001EC
:1059E000002A06BF0A78002A40F008006A88002AC8
:1059F00006BF4978002940F0100000F0F1FEE06B8E
:105A0000416800918269A17A90F89C0001F001033D
:105A100000280CBF012100210020FFF71AFEE06BD7
:105A200081680091826990F89C0001280CBF0121D7
:105A30000021A07AC0F340030120FFF70AFEE06BCB
:105A4000C1680091826990F89C0002280CBF012176
:105A50000021A07AC0F380030220FFF7FAFDE06B7B
:105A600001690091826990F89C0003280CBF012114
:105A70000021A07AC0F3C0030320FFF7EAFDE06B2A
:105A800041690091826990F89C0004280CBF0121B3
:105A90000021A07AC0F300130420FFF7DAFD66723C
:105AA000A664BDE8F88F2DE9F00340F22C43C2F262
:105AB0000003D96E5D6E4143A1FB01C2002000FBD3
:105AC000012201FB0022A2FB014C00FB01CC02FBE6
:105AD00000C25708A7FB0569D3F868C04FEAE5780C
