:020000040000FA
:10C00000D82A002095C200001906010095F0000012
:10C010008D040100CDD900003D3E0100000000006C
:10C0200000000000000000000000000045100100BA
:10C03000D5EE000000000000ED0F01001D1501000D
:10C040000DF9000021F9000035F9000049F9000060
:10C050005DF9000071F9000085F9000099F9000010
:10C06000ADF90000C1F90000D5F90000E9F90000C0
:10C07000FDF9000011FA000025FA000039FA00006D
:10C080004DFA000061FA000075FA000089FA00001C
:10C090009DFA0000B1FA0000C5FA0000D9FA0000CC
:10C0A000EDFA000001FB000015FB000029FB000079
:10C0B0003DFB000051FB000065FB000079FB000028
:10C0C0008DFB0000A5FB0000BDFB0000D5FB0000C0
:10C0D000EDFB000005FC00001DFC000035FC00002D
:10C0E0004DFC000065FC00007DFC000095FC00009C
:10C0F000ADFC0000C5FC0000DDFC0000F5FC00000C
:10C100000DFD000025FD00003DFD000055FD000077
:10C110006DFD000085FD00009DFD0000B5FD0000E7
:10C12000CDFD0000E5FD0000FDFD000015FE000056
:10C130002DFE000045FE00005DFE000075FE0000C3
:10C140008DFE0000A5FE0000BDFE0000D5FE000033
:10C15000EDFE000005FF00001DFF000035FF0000A0
:10C160004DFF000065FF00007DFF000095FF00000F
:10C17000ADFF0000C5FF0000DDFF0000F5FF00007F
:10C180000D000100250001003D00010055000100E7
:10C190006D000100850001009D000100B500010057
:10C1A000CD000100E5000100FD00010015010100C6
:10C1B0002D010100450101005D0101007501010033
:10C1C0008D010100A5010100BD010100D5010100A3
:10C1D000ED010100050201001D0201003502010010
:10C1E0004D020100650201007D020100950201007F
:10C1F000AD020100C5020100DD020100F5020100EF
:10C200000D030100250301003D030100550301005A
:10C210006D030100850301009D030100B5030100CA
:10C22000CD030100E5030100FD0301001504010039
:10C230002D040100450401005D04010075040100A6
:10C24000D7C20000D7C20000D7C20000D7C200008A
:10C25000D7C20000D7C20000D7C20000D7C200007A
:10C26000D7C20000D7C20000D7C20000D7C200006A
:10C27000D7C20000D7C20000D7C20000D7C200005A
:10C28000DFF80CD000F00CFE00480047D169010037
:10C29000D82A002010484FF0770101600F484FF076
:10C2A000770101600E484FF4885101600A484FF051
:10C2B0007601016009484FF0760101600948804726
:10C2C00009480047FEE7FEE7FEE7FEE7FEE7FEE778
:10C2D000FEE7FEE7FEE7FEE7040805400C08054020
:10C2E000000805402518010081C200002DE9F05F1B
:10C2F0000546002092469B468846064681464024D5
:10C300001BE0284641464746224600F020FB5346A4
:10C310005A46C01A914110D311461846224600F0E1
:10C3200007FB2D1A67EB01084F462246012000212A
:10C3300000F0FEFA17EB00094E41201EA4F10104A3
:10C34000DFDC484631462A464346BDE8F09F40EAD6
:10C3500001039B0703D009E008C9121F08C0042A83
:10C36000FAD203E011F8013B00F8013B521EF9D26A
:10C370007047D2B201E000F8012B491EFBD2704792
:10C380000022F6E710B513460A4604461946FFF7A1
:10C39000F0FF204610BDCAB2401E10F8011F8A42AD
:10C3A00002D00029F9D100207047421C10F8011B6F
:10C3B0000029FBD1801A7047034611F8012B00F8C1
:10C3C000012B002AF9D118467047F0B480EA010227
:10C3D000D40F4200B2EB410F02D20246084611468A
:10C3E0004A0042D0C30DDDB2C1F3C752AD1A202DB1
:10C3F00035DAC1F3160141F4000204B15242C5F12D
:10C40000200602FA06F12A411044B3EBD05F23D094
:10C41000C4B1012DA0EBC35009DCF0BC4FF00042C9
:10C4200002EAC352DBB200F5000000F006BB400098
:10C4300000F1807000EBC350A0F1807040EAD17031
:10C44000490009E0490841EAC071A0EBC35000F57A
:10C450000000400800EBC350F0BC00F0E5BA6142B8
:10C46000012202EB4101001BF6E7F0BC704781F0AE
:10C470000041AAE780F00040A7E780EA010210B57A
:10C4800002F00043400022D04A001FD0010E01EB11
:10C490001261C0F35600C2F3560240F4000042F4A9
:10C4A0000002A0FB022000047F39140400D0401CCD
:10C4B00050EA124001D44000491EC2B20C0604EBFF
:10C4C000D010401C4008802A02D003E0002010BD9C
:10C4D00020F00100002900DA0020184310BD30B41C
:10C4E00080EA010202F0004530F0004221F00040F5
:10C4F00013D090B1C30DD40DC2F31601C0F31600D2
:10C50000E41A41F4000140F400027D34914201D369
:10C51000641C00E04900002C02DA30BC00207047A7
:10C520004FF400000023914201D3891A03434008CD
:10C530004FEA4101F7D151B1914202D14FF0004190
:10C5400005E002D24FF0010101E06FF0010103EBC1
:10C55000C450284430BC00F067BA2DE9FE4F81EA90
:10C56000030404F0004421F0004100944FF0000B5C
:10C5700023F0004350EA01045ED052EA03045BD08A
:10C58000C3F30A54C1F30A552C44A4F2F3340194C2
:10C59000A0FB0254C1F3130141F48011C3F3130350
:10C5A00043F4801301FB024400FB034E840A970A04
:10C5B00044EA815447EA8357A4FB076802958D0A31
:10C5C00005FB07854FEA932C04FB0C542705029DBD
:10C5D0004FEA065847EA1637B5EB08056EEB070C2D
:10C5E000870E920E47EA811742EA8312A7FB0201E7
:10C5F000B6EB0B0164EB00042B0D43EA0C335E1821
:10C6000044EB1C50DA465146E7FB0201C5F3130424
:10C610004FEA0B3343EA14534FEA0432019C43EAD6
:10C620000603A4F10C040294009CCDE900B400F0D0
:10C6300041FA03B0BDE8F08F00200146F9E72DE98B
:10C64000F04D81EA030404F0004B21F0004514464C
:10C650004FF0000A23F0004150EA050220D054EACE
:10C6600001021DD0C5F30A570246C5F31303C1F3F7
:10C670001300C1F30A5640F4801543F48013A7EB6E
:10C680000608101BD64608F2FD3873EB050002D3EE
:10C6900008F1010801E092185B41B8F1000F03DADC
:10C6A00000200146BDE8F08D00204FF480110646C1
:10C6B00084460EE0171B73EB050705D3121B63EBD3
:10C6C000050306434CEA010C49084FEA3000921872
:10C6D0005B4150EA0107EDD152EA030012D082EA31
:10C6E000040083EA0501084305D0101BAB4106D2C4
:10C6F0000122002306E000224FF0004302E06FF029
:10C70000010253101AEB06004CEB085110EB0A0023
:10C7100041EB0B01BDE8F04D00F0BDB9C10F80EA5F
:10C72000E0700844CA079623002100F086B99623DA
:10C730000022114600F081B90EB540F2334102915A
:10C740000021CDE900110A460B4600F0B3F903B011
:10C7500000BD00F0004220F00040C10DC0F3160003
:10C7600040F400007F2901DA00207047962903DC9D
:10C77000C1F19601C84001E096398840002AF4D002
:10C780004042704720F00040C10DC0F3160040F455
:10C7900000007F2901DA00207047962903DCC1F1EF
:10C7A0009601C840704796398840704770B5C1F30C
:10C7B0000A5201F000450024C1F3130140F2FF3397
:10C7C00041F480119A4201DA002070BD40F23343F7
:10C7D0009A42A2F2334203DC524200F0B8F800E081
:10C7E00090402C43F1D0404270BDC1F30A5210B5C5
:10C7F000C1F3130140F2FF3341F480119A4201DA90
:10C80000002010BD40F233439A42A2F2334203DCCF
:10C81000524200F09CF810BD904010BD00F0004264
:10C8200030F000400AD0C10D01F56071C0F3160070
:10C8300042EA0151C20840071143704700200146F7
:10C840007047000030B5041E71F1000404DB4FF0A6
:10C850000044404264EB0101141E73F1000405DB47
:10C860001C464FF00043524263EB04038B4208BF67
:10C87000824230BD30B5041E71F1000404DB4FF07C
:10C880000044404264EB0101141E73F1000405DB17
:10C890001C464FF00043524263EB0403994208BF29
:10C8A000904230BD01F0004330B421F0004150EA25
:10C8B000010206D00A0DA2F56072C1F31301002A2D
:10C8C00002DC30BC00207047440F44EAC104C100C0
:10C8D000E01830BC00EBC25000F0A6B8002801DB25
:10C8E000C0F10040002901DBC1F1004181427047E5
:10C8F000002801DBC0F10040002901DBC1F100414B
:10C900008842704730B50B460146002020220124A2
:10C9100009E021FA02F59D4205D303FA02F5491B0D
:10C9200004FA02F52844151EA2F10102F1DC30BD23
:10C93000202A04DB203A00FA02F1002070479140DF
:10C94000C2F1200320FA03F3194390407047202AD4
:10C9500004DB203A21FA02F00021704721FA02F3A9
:10C96000D040C2F1200291400843194670470000B0
:10C970000048704754A9010010B50446FFF7F8FFBE
:10C980000068005D00F0010010BD00000FB400233E
:10C9900000B589B00CA900910B996FF00042CB60F3
:10C9A0001E4B06931E4B07930423CDE901321D4A0B
:10C9B000089202466B46002000F02AFB09B05DF8A1
:10C9C00014FB70B586B006464FF0FF300091CDE9FC
:10C9D0000101002015460C4604903246694604A821
:10C9E000FFF7D4FF02460498211825B108B1084684
:10C9F00000E020462860049800280DD0002A02DDBF
:10CA00000098884208D0081B0094CDE90104324602
:10CA1000694604A8FFF7BAFF06B070BD49D200000E
:10CA200067D2000079C900000029A8BF7047401CE8
:10CA3000490008BF20F00100704710B4B0FA80FC34
:10CA400000FA0CF050EA010404BF10BC704749B171
:10CA5000CCF1200421FA04F411FA0CF118BF0121E1
:10CA600021430843A3EB0C01CB1D4FEA00614FEAC1
:10CA7000102042BF002010BC704700EBC350104490
:10CA80000029A4BF10BC7047401C490008BF20F01B
:10CA9000010010BC704710B5141E73F1000408DAD1
:10CAA000401C41F1000192185B411A4301D120F072
:10CAB000010010BD2DE9F04D92469B4611B1B1FA2F
:10CAC00081F202E0B0FA80F220329046FFF730FFA8
:10CAD00004460F4640EA0A0041EA0B0153465A4613
:10CAE000084313D0114653EA010019D0C8F140029F
:10CAF0005046FFF72CFF05460E4650465946424623
:10CB0000FFF716FF084305D0012004E02046394610
:10CB1000BDE8F08D0020054346EAE0762C4337431C
:10CB20000A986305E40AA0EB08000022FD0A44EA23
:10CB300047540A3002D500200146E9E701051019E3
:10CB40006941DDE9084500196941BDE8F04DA2E7FA
:10CB50002DE9FE4F804681EA0300C00F0C4600908D
:10CB600021F0004123F00045B8EB0200A94105D2B5
:10CB70004046214690461C460B46024623F00040A4
:10CB8000104347D0270DC7F30A00C3F30A510290A0
:10CB9000401A019040286BDAC3F3130040F4801B65
:10CBA0000098924620B10023D2EB030A63EB0B0BF3
:10CBB00001985946C0F140025046FFF7B9FE0646BB
:10CBC0000D4650465946019A00F07CF910EB0800DA
:10CBD0006141002487EA115284EAE7731A4340D086
:10CBE000009A62B3019A012A4FEA075215DC001B32
:10CBF00061EB02014FF0004202EA0752CDE9004228
:10CC0000001C41F5801132462B46FFF753FF03B05D
:10CC1000BDE8F08F40462146F9E7001B61EB0201B9
:10CC2000001C41F5801300185B412018A2F5001785
:10CC300047EB030140EAD570B6196D4111E06D086C
:10CC40004FEA360645EAC0754FEA0752001B61EB12
:10CC50000201001C41F5801149084FEA300000191B
:10CC6000514132462B4603B0BDE8F04FFFF713BFEA
:10CC70000098012240000023D0EB020263EBE07336
:10CC8000009821464FEAE074B8EB000061EB040124
:10CC9000E9E783F000435BE781F0004158E72DE9C5
:10CCA000F04D00231A461B1A8A4103DB002001467F
:10CCB000BDE8F08DC1F30A52C1F3130141F48015B0
:10CCC0004FF0000BD10702D100186D41521E002712
:10CCD000044640F2FF11384601EB620A3E468046A8
:10CCE000024600204FF48011FFF731FEC219714156
:10CCF000BB1846EB0100B4EB030C75EB000C04D33E
:10CD0000E41A65EB000517460E46241908F10100E8
:10CD10006D4180463428E3DDF91946EB0600091B16
:10CD2000A84103D24FF0FF32134601E00022134620
:10CD30001BEB070046EB0A51BDE8F04DFFF7ABBE19
:10CD40002DE9F041054621F000400C46284309D06A
:10CD5000C4F30A5040F23341884205DD284621469B
:10CD6000BDE8F0812846FBE740F2FE31884210DC46
:10CD70000CDB4FEA043040EA155050EA053105D08B
:10CD8000104804F0004101430020E9E7002001467B
:10CD9000E6E7A0F233404642C6F14002284621466B
:10CDA000FFF7C6FD07468846284621463246FFF76C
:10CDB000CEFD43463A46FFF76EFE3246BDE8F041EF
:10CDC000FFF7B6BD0000F03FC1F30A52C1F31301F3
:10CDD00040F2FF3341F480119A4202DA002001460A
:10CDE000704740F233439A42A2F2334202DC52428D
:10CDF000FFF7ADBDFFF79CBD2DE9F047C1F30A5425
:10CE000001F0004805460027C1F3130140F2FF304E
:10CE100041F4801684421ADAB4F57F7F00DC841E68
:10CE2000A4F213446242924628463146FFF78FFD32
:10CE300004465246FFF77CFD45404E40354301D045
:10CE4000012000E0002044EA000100201BE040F245
:10CE5000334084421ADCA4F2F33228463146FFF70D
:10CE600067FD0A4678405140084301D0012000E0A8
:10CE7000002040EA020AA4F23344624228463146C6
:10CE8000FFF765FD5146FFF7CFFD03E0A4F2334401
:10CE900005FA04F057EA080700D04042BDE8F087E1
:10CEA000064C074D06E0E06840F0010394E80700F7
:10CEB00098471034AC42F6D3FFF7E6F958A90100C1
:10CEC00078A90100202A06DBCB17203A41FA02F0AC
:10CED00043EAE07306E041FA02F3D040C2F12002D7
:10CEE00091400843194670472DE9FF4F087883B0F9
:10CEF0009946FF2805D0491C2D2804D00024002085
:10CF000008E000200BE00124F9E700EB800003EBD0
:10CF10004000491C0B78FF2BF7D104B1404200239D
:10CF20000293147819461D462D2C01D02B2C04D1C8
:10CF3000521C2D2C13D000240294AA461478FF2CE6
:10CF40000FD00A25A3FB057801FB05814FF0000CEB
:10CF500003FB0C11521CE3194AEB0101EEE701241B
:10CF6000EAE7814453EA010002D019F5C87F06DAE6
:10CF700003980021C0E9001107B0BDE8F08F00253B
:10CF8000AE4E2F46DFF8B882184600F07DF9CDE9A5
:10CF90000001B9F1000002DAC9F1000400E0044622
:10CFA0000023A74A1AEB030B42EB045A12E0E007F6
:10CFB00007D02A46334638464146FFF7CEFA0746A1
:10CFC00088462A46334610461946FFF7C6FA0546F4
:10CFD0000E466410002CEAD1DDE90001B9F1000F22
:10CFE0005A46534606DAFFF72AFB3A464346FFF70E
:10CFF00026FB05E0FFF7B1FA3A464346FFF7ADFAE4
:10D00000029A0AB181F00041039AC2E90001B3E734
:10D010002DE9FF4F1F468DB0D7E901464FF0FF388D
:10D020002E2045464FF000090B90B9696D1C0E98F3
:10D030008847396A824688470028F6D1BAF1FF3F0F
:10D040000AD024F4D064002E11DDBAF12B0F08D0E1
:10D05000BAF12D0F0BD102E0404611B08DE744F438
:10D060008064B9696D1C0E9888478246761E6946B1
:10D07000600501D52D2000E02B208DF8000001F186
:10D08000010B0DF1200809E0B9696D1C0E98884765
:10D0900082460F9844F40074761E0560002E02DD6F
:10D0A000BAF1300FF0D00B998A453ED144F080049C
:10D0B00006E00F99681CA9F1010944F400740860A6
:10D0C000B9696D1C761E0E98884782463028F0D0CC
:10D0D0002BE00B998A4505D1200603D444F0800447
:10D0E000761E18E0504607F011FA08B30DF113014F
:10D0F000761E44F400748B4508D2AAF130000BF878
:10D10000010B200607D5A9F1010003E0200602D497
:10D1100009F101008146A00502D50F99681C08603D
:10D12000B9696D1C0E9888478246002ED1DC53E009
:10D13000002E51DDBAF1650F02D0BAF1450F4BD187
:10D14000A00549D5B9696D1C24F44074761E0E986B
:10D1500088478246002E0CDD2B2804D0BAF12D0F13
:10D1600007D144F48074B9696D1C0E9888478246D3
:10D17000761EE00501D52D2100E02B2108F8011BCA
:10D18000CDF82C8021E00DF12901761E44F40074C5
:10D1900088450CD2AAF1300010F0FF0088F800009A
:10D1A00002D10B99884509D908F1010806E0E0058C
:10D1B00001D5244801E042F20F708146B9696D1C27
:10D1C0000E98884782460F980560002E04DD504671
:10D1D00007F09CF90028D6D1F9690E988847FF20FE
:10D1E0008BF8000088F800000020069007904B465E
:10D1F0006A4608A906A8FFF777FEA00502D46FF0DB
:10D2000001002AE714F0240F0AD0E00714D1DDE969
:10D2100006123868031D3B600068C0E900120BE08D
:10D22000DDE90601FFF73EFB0146E00704D138685F
:10D23000021D3A600068016028460EE700001440B5
:10D240000000F03FF1D8FFFF426842B1016811F8D9
:10D25000013B23B1521EC0E900121846704701215C
:10D26000C160881E704742685AB1C368016843B9FB
:10D2700083688B4205D0491E521CC0E90012002071
:10D2800070474FF0FF3070470EB540F233420292C4
:10D290000022CDE900221346FFF70CFC03B000BDCD
:10D2A00070B58C1810F8015B15F0070301D110F868
:10D2B000013B2A1106D110F8012B03E010F8016B95
:10D2C00001F8016B5B1EF9D12B0705D40023521E18
:10D2D0000DD401F8013BFAE710F8013BCB1A921C80
:10D2E00003E013F8015B01F8015B521EF9D5A1427E
:10D2F000D8D3002070BD00002DE9F04704460E464B
:10D300004FF0040A002C50D0002E4ED03079012866
:10D310004BDC00BF2648844202D02648844200D11C
:10D3200004E040F2472124A001F0BCFD00BF2048EA
:10D33000844216D13068C0F31005307940B9A08915
:10D34000A9B20843A081E08940EA1540E08116E0D7
:10D35000208AA9B208432082608A40EA1540608290
:10D360000DE03088C0F30805307920B9A089A9B252
:10D370000843A08103E0208AA9B208432082002745
:10D38000B84604F120090DE005F0010038B140462F
:10D39000411C01F0FF08B268105C09F807006D0835
:10D3A000781CC7B2002DEFD1AA465046BDE8F087E1
:10D3B00000000440000404402E2E5C736F757263FD
:10D3C000655C6472697665725C7372635C68633312
:10D3D00032663436305F6164632E630070B5054693
:10D3E0000C460426002D72D0002C70D000BF3948A6
:10D3F000854202D03848854200D103E0EB2137A0B6
:10D4000001F050FD00BF00BF2078022804D0207832
:10D41000012801D0207800B903E0EC212FA001F011
:10D4200041FD00BF00BF607810B16078012800D1D5
:10D4300003E0ED2129A001F035FD00BF00BFA07879
:10D44000012801D0A07800B903E0EE2123A001F06B
:10D4500029FD00BF00BFE07840B1E078012805D089
:10D46000E078022802D0E078032800D103E0EF2121
:10D470001AA001F017FD00BF00BF207910B120797C
:10D48000012800D103E0F02114A001F00BFD00BF42
:10D49000002028702178688861F305106880617821
:10D4A000688861F3C7106880A178688861F3861086
:10D4B0006880E178688861F3010068802179A88834
:10D4C00061F38200A880002085F8470000263046DE
:10D4D00070BD000000000440000404402E2E5C7368
:10D4E0006F757263655C6472697665725C73726392
:10D4F0005C68633332663436305F6164632E630088
:10D5000070B50446042584B100BF0948844202D0A6
:10D510000848844200D104E040F28D4106A001F0A9
:10D52000C1FC00BF012020700025284670BD00000E
:10D5300000000440000404402E2E5C736F7572637B
:10D54000655C6472697665725C7372635C68633390
:10D5500032663436305F6164632E63002DE9F0413A
:10D5600004460E4615460427002C25D0012E23DC48
:10D5700000BF1348844202D01248844200D104E024
:10D5800040F2D31110A001F08DFC00BF00BF0DB11F
:10D59000012D00D104E04FF4EA710BA001F082FCF0
:10D5A00000BF26B9608965F3C710608103E0608918
:10D5B00065F3CF30608100273846BDE8F081000078
:10D5C00000000440000404402E2E5C736F757263EB
:10D5D000655C6472697665725C7372635C68633300
:10D5E00032663436305F6164632E63001FB50DA070
:10D5F0000068009000BF002001900290039000BFDF
:10D6000002222121084800F09FF8212001900020EB
:10D610008DF80800CDF80CD001A90348FFF76CFE87
:10D620001FBD0000304000000000044010B500F0B5
:10D630006FF8FFF7DBFF00F007F900F007F802488A
:10D64000FFF75EFF10BD00000000044000B58DB084
:10D6500000BF302101A8FEF793FE00BF1120ADF8F6
:10D6600004000020ADF806002648029026480390EA
:10D670004FF4AA70ADF812001120ADF81000002090
:10D6800005900021ADF81C100690ADF8241008900C
:10D6900001208DF8280001218DF829108DF82A101D
:10D6A0008DF82B1000218DF82C108DF82D100121F4
:10D6B0008DF82E1000218DF82F108DF831100121DA
:10D6C000C00303F00DFB01AA0321104801F06EF91D
:10D6D00001210E4801F030F9012203210B4800F02E
:10D6E0009FFF02220321094801F0A8F80121480404
:10D6F00003F0F6FA4FF4E0720321044801F094FBC2
:10D700000DB000BD50000440809AFF1F003405405A
:10D710001CB500BF00200090019000BF8DF80000F4
:10D720008DF8010001208DF802008DF803008DF8BE
:10D7300004000121084603F095FB69460148FFF704
:10D740004DFE1CBD000004402DE9F04106460C468C
:10D7500017464FF000080D48864201D1A4B202E0FE
:10D76000E4B24FF0040800250BE004F0010028B1FA
:10D7700005EB0801C8B2394600F00AF86408681CD5
:10D78000C5B2002CF1D1BDE8F081000000000440DA
:10D790002DE9FC4104460D46002601274FF0010803
:10D7A00000BF00200090019000BF8DF800508DF860
:10D7B0000400102C39D2DFE804F0080B0E11141706
:10D7C0001A1D202326292C2F3235002601272FE071
:10D7D000002602272CE00026042729E0002608273F
:10D7E00026E00026102723E00026202720E0002640
:10D7F00040271DE0002680271AE00126012717E0B8
:10D800000126022714E00226012711E00226022742
:10D810000EE0022604270BE00226082708E0022675
:10D82000102705E00226202702E04FF0000800BF85
:10D8300000BFB8F1010F04D16A463946304603F003
:10D840005DF8BDE8FC8100001CB500BF0020009021
:10D85000019000BF0121480403F042FA0022114662
:10D860000148FFF77BFE1CBD000004402DE9F04796
:10D8700005460E46144600270021284604F040FCC9
:10D8800080460121284604F03BFC8146012C07D14B
:10D89000B8F1010F02D0B9F1010F08D1012706E05C
:10D8A0003146284604F02CFC012800D10127012F25
:10D8B0000BD1002001E000BF401C0549096842F27D
:10D8C0001072B1FBF2F18142F5D8BDE8F08700009B
:10D8D0000080FF1F10B50AF081FE00200D4908608E
:10D8E00001F08EFB01F0C4FB08F07EFFFFF79EFE07
:10D8F00001F05AFC01F0D2FB03F0F2FA07F0ACFAA7
:10D9000009F032F902F0F2FD40F2DC5001F0E6FAE3
:10D9100010BD00008081FF1F70B504461F48857848
:10D92000012020EAD51630460AF0CEFE00201C4920
:10D9300008601CB11B4908701B49087001201B4975
:10D94000087000201A49087005F0B0FD19491A48FE
:10D9500005F0D5FD00F0DCFC0421184801F0F0FED4
:10D960001648943000F0D6FC0221154801F0E8FE7C
:10D970001049144805F0C3FD012008F00FFF08F01E
:10D980006BFF18B10121104801F01EFD08F0FCFEEC
:10D9900018B901210A4801F017FD70BD9080FF1FE2
:10D9A0008081FF1F7A80FF1F7E80FF1F8180FF1F05
:10D9B0008280FF1F90D003005C87FF1FCC87FF1F72
:10D9C0002489FF1F7C87FF1F7888FF1F10B5AFF3E6
:10D9D000008010BD70B50021002200240023002823
:10D9E0007ED0434D2D7805F00705052D15D2DFE8D3
:10D9F00005F00306090D10003E4D05603BE03E4D6D
:10DA0000056038E04FF40045056034E03B4D0560AB
:10DA100031E04FF4004505602DE0354DDA352D68D5
:10DA2000C5F3C013324D263DD5F800512A0F304DB5
:10DA3000DA352D68C5F308212D4D263DD5F8005166
:10DA400005F01F0453B9651C2C4EB6FBF5F54E1CB2
:10DA50007543561CB5FBF6F505600BE0012B09D1AB
:10DA6000651C244EB6FBF5F54E1C7543561CB5FBE4
:10DA7000F6F5056000BF00BF1D4E263E0568366AFC
:10DA8000C6F30266F5404560194E263E0568366AC3
:10DA9000C6F30256F5408560154E263E0568366A87
:10DAA00006F00706F540C560114E263E0568366A49
:10DAB000C6F30216F54005610D4E263E0568366A2E
:10DAC000C6F30226F5404561094E263E0568366AD2
:10DAD000C6F30236F5408561054E263E056800E036
:10DAE00004E0366AC6F30246F540C56170BD000029
:10DAF000264005400024F40000127A00001BB70005
:10DB000070B5044600BF3CB1012C05D0022C03D0F7
:10DB1000032C01D0042C00D104E040F221611EA0AE
:10DB200001F0C0F900BF34B1012C0DD0022C14D08B
:10DB3000032C24D11AE02148007800F0010080F085
:10DB4000010080F0010524E01C480078C0F3C0000B
:10DB500080F0010080F001051BE018480078C0F358
:10DB6000401080F0010080F0010512E013480078B9
:10DB7000C0F3801080F0010080F0010509E00F483B
:10DB8000401D007800F0010080F0010080F00105E8
:10DB900000BF00BF284670BD2E2E5C736F75726388
:10DBA000655C6472697665725C7372635C6863332A
:10DBB00032663436305F636C6B2E63003C40054048
:10DBC0000248007800F0070070470000264005403A
:10DBD000F8B5044600200090002600BF0CB1012CCF
:10DBE00000D104E040F22E3120A001F05BF900BF2B
:10DBF000274800884AF2015108432649A1F8FE034C
:10DC000094B924482630007800F00700052801D197
:10DC100001261FE01F482A30007820F00100401C38
:10DC20001C4981F82A0015E01A482A30007820F0B3
:10DC30000100184981F82A0000BF0220FFF760FFA9
:10DC400005460098401C00900098B0F5805F01D216
:10DC5000012DF2D10E4800884FF6FE71084040F4C5
:10DC600025400C49A1F8FE033046F8BD2E2E5C730A
:10DC70006F757263655C6472697665725C737263FA
:10DC80005C68633332663436305F636C6B2E6300DE
:10DC9000FE4305400040054070B5044600250026BF
:10DCA000002C7DD000BF2068022803D320681028F4
:10DCB00000D804E04FF43F7154A001F0F3F800BF26
:10DCC00000BF6068012803D36068102800D804E012
:10DCD00040F2FD214DA001F0E5F800BF00BFA068B3
:10DCE000022803D3A068102800D804E040F2FE21E7
:10DCF00046A001F0D7F800BF00BFE068142804D3A5
:10DD0000E068B0F5F07F00D804E040F2FF213FA0CA
:10DD100001F0C8F800BF00BF2069012803D32069C3
:10DD2000182800D804E04FF4407138A001F0BAF888
:10DD300000BF3F480068C0F3C01008B93D4800E08C
:10DD40003D482169B0FBF1F5E06800FB05F600BF36
:10DD50003A48854203D33A48854200D804E040F26D
:10DD600007312AA001F09EF800BF00BF3548864267
:10DD700003D34000864200D804E04FF4427123A050
:10DD800001F090F800BF304800884AF20151084382
:10DD90002D4908802078401E2C49D1F8001100E060
:10DDA00032E060F31F71224801602079401E27494C
:10DDB000D1F8001160F31B611D480160207A401EFC
:10DDC0002249D1F8001160F3175119480160A08968
:10DDD000401E1E49D1F8001160F310211448016063
:10DDE000207C401E1949D1F8001160F30401174846
:10DDF000C0F80011B0F8FE034FF6FE71084040F481
:10DE000025401249A1F8FE0370BD00002E2E5C7360
:10DE10006F757263655C6472697665725C73726358
:10DE20005C68633332663436305F636C6B2E63003C
:10DE300000410540001BB7000024F40040420F00E1
:10DE400000366E01001C4E0EFE43054000400540AA
:10DE500010B5044600BF0CB1012C00D104E040F223
:10DE6000DD210FA001F01EF800BF164800884AF21D
:10DE7000015108431449A1F8FE030846D0F80001F7
:10DE800064F3C710C1F800010846B0F8FE034FF66E
:10DE9000FE71084040F425400B49A1F8FE0310BD77
:10DEA0002E2E5C736F757263655C64726976657241
:10DEB0005C7372635C68633332663436305F636C04
:10DEC0006B2E6300FE4305400040054010B586B050
:10DED000044600200590394800680490374840689F
:10DEE00003903648806802903448C068019000BFB3
:10DEF0001CB1012C02DB052C00DC04E040F2BE3139
:10DF00002FA000F0CFFF00BF36482C4908613648EB
:10DF1000007800F00700052801D0052C0ED1334809
:10DF200026490860C01248608860C86000BF059834
:10DF3000401C05900598B0F5007FF8D32C48008868
:10DF40004AF20151084328492639A1F8FE03084640
:10DF500090F8260064F3020081F826000846B0F825
:10DF6000FE034FF6FE71084040F425401E49263955
:10DF7000A1F8FE030020059000BF0598401C059005
:10DF80000598B0F5007FF8D30C4904980860039811
:10DF90004860029888600198C8601248401E086175
:10DFA0000020059000BF0598401C05900598B0F52D
:10DFB000007FF8D303F0D2FB06B010BD0080044010
:10DFC0002E2E5C736F757263655C64726976657220
:10DFD0005C7372635C68633332663436305F636CE3
:10DFE0006B2E63000100A5A526400540EEFAFFFF59
:10DFF000FE43054010B586B0044600200590594800
:10E000000068049057484068039056488068029022
:10E010005448C0680190544852490861002C7DD092
:10E0200000BF2078E178884232DC2078617988422C
:10E030002EDC2078A17988422ADCA078E178884219
:10E0400026DCA0786179884222DC2079A179401A07
:10E0500003281CD02079A179401A022817D02079F2
:10E06000A179401A012812D02079A179401A0ED046
:10E07000A0792179401A012809D0A0792179401A84
:10E08000022804D0A0792179401A032800D104E0A5
:10E0900040F21D4135A000F005FF00BF3C4800786C
:10E0A00000F0070005280ED13A482E490860C0123A
:10E0B00048608860C86000BF0598401C05900598BE
:10E0C000B0F5007FF8D3344800884AF20151084384
:10E0D00031490880A078E17840EA0110217940EACE
:10E0E0000120617940EA0130A17940EA014061787C
:10E0F00040EA0150217840EA016040EA0170244979
:10E1000026390862244800884FF6FE71084040F422
:10E1100025401F492639A1F8FE0300E01FE000203A
:10E12000059000BF0598401C05900598B0F5007F4C
:10E13000F8D30C49049808600398486002988860F6
:10E140000198C8600848401E08610020059000BF83
:10E150000598401C05900598B0F5007FF8D306B0EF
:10E1600010BD0000008004400100A5A52E2E5C73A8
:10E170006F757263655C6472697665725C737263F5
:10E180005C68633332663436305F636C6B2E6300D9
:10E1900026400540EEFAFFFFFE430540F8B5044671
:10E1A00000200090002600BF0CB1012C00D104E03B
:10E1B0004FF4C17131A000F075FE00BF00BF0CB17B
:10E1C000012C00D104E04FF4C2712CA000F06AFED3
:10E1D00000BF334800884AF2015108433149A1F891
:10E1E000FE034CBB2F482630007800F007000328C0
:10E1F00001D1012636E02C480068C0F3C01088B970
:10E2000028482A30007800F0010008B9012629E0EA
:10E2100024483230007820F00100401C214981F868
:10E2200032001FE01F483230007820F00100401C0F
:10E230001C4981F8320015E01A483230007820F08D
:10E240000100184981F8320000BF0120FFF758FC97
:10E2500005460098401C00900098B0F5805F01D200
:10E26000012DF2D10E4800884FF6FE71084040F4AF
:10E2700025400C49A1F8FE033046F8BD2E2E5C73F4
:10E280006F757263655C6472697665725C737263E4
:10E290005C68633332663436305F636C6B2E6300C8
:10E2A000FE430540004005400041054058B3164973
:10E2B00009884AF201521143134A11800278124927
:10E2C0001231097862F3C7110F4A12321170427885
:10E2D0000D491231097862F386110B4A123211701E
:10E2E000827809491231097862F30511064A12321F
:10E2F0001170054909884FF6FE72114041F425411D
:10E30000024AA2F8FE137047FE4305400040054054
:10E310007047000000B50346054890F8AF10184656
:10E3200000F008F8012018700020187500BD0000EA
:10E330009080FF1F41608160A1F10A02C260143227
:10E340000261704770B506460C46154600BFA848E6
:10E35000864202D0A748864200D104E040F2AA617A
:10E36000A5A000F09FFD00BF00BF2CB1012C03D081
:10E37000022C01D0032C00D104E040F2AB619EA03E
:10E3800000F090FD00BF00BF287828B12878012850
:10E3900002D02878022800D104E040F2AC6196A0B7
:10E3A00000F080FD00BF00BF687828B168780128C0
:10E3B00002D06878022800D104E040F2AD618EA05E
:10E3C00000F070FD00BF00BFA87810B1A878012848
:10E3D00000D104E040F2AE6187A000F063FD00BF11
:10E3E00000BFE87810B1E878012800D104E040F2DD
:10E3F000AF6181A000F056FD00BF00BF287910B1C9
:10E400002879012800D104E04FF4D6617AA000F009
:10E4100049FD00BF00BF687910B16879012800D1BB
:10E4200004E040F2B16174A000F03CFD00BF00BF09
:10E43000A87928B1A879012802D0A879022800D1AA
:10E4400004E040F2B2616CA000F02CFD00BF00BF00
:10E45000E87910B1E879012800D104E040F2B36115
:10E4600065A000F01FFD00BF00BF287A10B1287A18
:10E47000012800D104E040F2B4615FA000F012FD79
:10E4800000BF00BF687A10B1687A012800D104E0AB
:10E4900040F2B56158A000F005FD00BF00BF06F1D5
:10E4A0005C0000EB8410006820F00300297808432A
:10E4B00006F15C0101EB8411086000BF00BF06F1AA
:10E4C0005C0000EB8410006820F00C00697840EAE2
:10E4D000810106F15C0000EB8410016000BF00BF09
:10E4E00006F15C0000EB8410006820F01000A978B1
:10E4F00040EA011106F15C0000EB8410016000BFEE
:10E5000000BF06F15C0000EB8410006820F02000E2
:10E51000E97840EA411106F15C0000EB84100160EB
:10E5200000BF00BF06F15C0000EB8410006820F023
:10E530004000297940EA811106F15C0000EB84106B
:10E54000016000BF00BF06F15C0000EB84100068B2
:10E5500020F08000697940EAC11106F15C0000EB0F
:10E560008410016000BF00BF06F15C0000EB841066
:10E57000006820F44070A97940EA012106F15C00AE
:10E5800000EB8410016000BF00BF06F15C0000EBEF
:10E590008410006820F48060E97940EA812106F166
:10E5A0005C0000EB8410016000BF00BF06F15C005E
:10E5B00000EB8410006820F40060297A40EAC12151
:10E5C00006F15C0000EB8410016000BF00BF06F1A3
:10E5D0005C0000EB8410006820F48050697A40EA07
:10E5E000013106F15C0000EB8410016000BF70BDDA
:10E5F00000300540003405402E2E5C736F75726349
:10E60000655C6472697665725C7372635C686333BF
:10E6100032663436305F646D61632E630000000043
:10E620002DE9F04704460D4690460026B14600BF4E
:10E630007548844202D07548844200D104E040F21B
:10E640007F2173A000F02EFC00BF00BF2DB1012D73
:10E6500003D0022D01D0032D00D104E04FF420712E
:10E660006BA000F01FFC00BF00BFB8F1000F02D08C
:10E67000B8F1010F00D104E040F2812164A000F064
:10E6800011FC00BF6C480078002872D101206A4953
:10E690000870E0690121A94020EA0109B9F1000FE1
:10E6A00068D0E06900F00100E0B1DDB1A06C070CBA
:10E6B000A06E0A21B1EB104F14D3A06EB7EB104F30
:10E6C00010D90AE0701C86B2B6F5A04F05D900201B
:10E6D000594908700920BDE8F087E06900F00100A1
:10E6E0000028EFD1E06900F00200022820D1012DBE
:10E6F0001ED0D4F88800070CD4F8A8000A21B1EB8A
:10E70000104F15D3D4F8A800B7EB104F10D900263E
:10E7100009E0701C86B2B6F5A04F04D90020464926
:10E7200008700920D7E7E06900F002000028F0D166
:10E73000E06900F00400042822D1022D20D0002638
:10E74000D4F8C800070CD4F8E8000A21B1EB104F48
:10E7500016D3D4F8E800B7EB104F11D90BE0701CBA
:10E7600086B2B6F5A04F06D90020334908700920BB
:10E77000B1E746E02AE0E06900F004000028EED1AD
:10E78000E06900F00800082820D1032D1ED00026E3
:10E79000D4F80801070CD4F828010A21B1EB104F76
:10E7A00014D3D4F82801B7EB104F0FD909E0701C2F
:10E7B00086B2B6F5A04F04D900201F490870092081
:10E7C00089E7E06900F008000028F0D1B8F1000FF7
:10E7D0000AD0B8F1010F0FD1E0690121A94001F081
:10E7E0000F010843E06107E0E0690121A9400F2221
:10E7F0008A431040E06100BF00BF00200E4908704E
:10E8000069E7012067E7000000300540003405405B
:10E810002E2E5C736F757263655C647269766572C7
:10E820005C7372635C68633332663436305F646D88
:10E8300061632E63000000000985FF1F2DE9F04190
:10E8400005460C461646002700BF2F48854202D0D9
:10E850002E48854200D104E040F246212CA000F071
:10E8600021FB00BF00BF2CB1012C03D0022C01D032
:10E87000032C00D104E040F2472125A000F012FB58
:10E8800000BF00BF2EB1012E03D0022E01D0032EF7
:10E8900000D104E04FF412711DA000F003FB00BF93
:10E8A0003CB1012C05D0022C03D0032C01D004274D
:10E8B00026E036B1012E0AD0022E10D0032E1CD134
:10E8C00013E068690121A1400843686117E06869A5
:10E8D00004F1100101228A40104368610FE0A86929
:10E8E0000121A1400843A86109E0A86904F11001D1
:10E8F00001228A401043A86101E0042700BF00BF45
:10E900003846BDE8F0810000003005400034054085
:10E910002E2E5C736F757263655C647269766572C6
:10E920005C7372635C68633332663436305F646D87
:10E9300061632E630000000070B504460D4600BF01
:10E940000E48844202D00E48844200D104E04FF4C5
:10E95000BD710CA000F0A6FA00BF00BF0DB1012DE3
:10E9600000D104E040F27B1106A000F09BFA00BF4A
:10E97000206865F30000206070BD00000030054095
:10E98000003405402E2E5C736F757263655C647293
:10E99000697665725C7372635C68633332663436C1
:10E9A000305F646D61632E630000000070B5054642
:10E9B0000C46164600BF7948854202D07848854209
:10E9C00000D104E040F2EB6176A000F06BFA00BFEA
:10E9D00000BF2CB1012C03D0022C01D0032C00D19C
:10E9E00004E040F2EC616FA000F05CFA00BF00BFF1
:10E9F000308800F47C4000B904E040F2ED6169A089
:10EA000000F050FA00BF00BFB078002000B904E069
:10EA100040F2EE6163A000F045FA00BF00BFB0898C
:10EA20006FF3090000B904E040F2EF615DA000F06F
:10EA300039FA00BF00BFF0896FF3090000B904E0A4
:10EA40004FF4DE6157A000F02DFA00BF01212846E7
:10EA5000FFF772FF05F15C0000EB8410006820F402
:10EA6000805105F15C0000EB8410016005F140006D
:10EA700000EB84107168016005F1440000EB841024
:10EA8000B168016000BF05F1480000EB8410006828
:10EA90006FF309003188084305F1480101EB841147
:10EAA000086000BF00BF718805F1480000EB8410CA
:10EAB000006861F31F4005F1480101EB8411086013
:10EAC00000BF00BF05F14C0000EB841000686FF33D
:10EAD0000900B189084305F14C0101EB841108607C
:10EAE00000BF00BF05F14C0000EB841000683749FF
:10EAF0000840F18940EA014105F14C0000EB841027
:10EB0000016000BF00BF05F1500000EB84100068F9
:10EB10006FF313007169084305F1500101EB841193
:10EB2000086000BF00BF318B05F1500000EB84107E
:10EB3000006861F31F5005F1500101EB841108607A
:10EB400000BF00BF05F1540000EB841000686FF3B4
:10EB50001300F169084305F1540101EB84110860C9
:10EB600000BF00BF318C05F1540000EB8410006839
:10EB700061F31F5005F1540101EB8411086000BFDF
:10EB800005F1580000EB84103169016006F12402A0
:10EB900021462846FFF7D6FB70BD00000030054037
:10EBA000003405402E2E5C736F757263655C647271
:10EBB000697665725C7372635C686333326634369F
:10EBC000305F646D61632E6300000000FFFF00FC96
:10EBD0002DE9F04105460C4616460027B84600BF11
:10EBE0001C48854202D01C48854200D104E04FF405
:10EBF00079711AA000F056F900BF00BF2CB1012CAA
:10EC000003D0022C01D0032C00D104E040F2E53106
:10EC100012A000F047F900BF05F1440000EB84109A
:10EC200006600CE0781C87B2B7F5805F02D94FF020
:10EC3000090804E005F1440000EB8410066005F1CA
:10EC4000640000EB84100068B042EBD14046BDE8A0
:10EC5000F081000000300540003405402E2E5C732A
:10EC60006F757263655C6472697665725C737263FA
:10EC70005C68633332663436305F646D61632E6383
:10EC8000000000002DE9F04105460C46164600271D
:10EC9000B84600BF1C48854202D01C48854200D1BE
:10ECA00004E040F2B9311AA000F0FCF800BF00BF48
:10ECB0002CB1012C03D0022C01D0032C00D104E094
:10ECC00040F2BA3112A000F0EDF800BF05F14000AB
:10ECD00000EB841006600CE0781C87B2B7F5805F0B
:10ECE00002D94FF0090804E005F1400000EB841060
:10ECF000066005F1600000EB84100068B042EBD1C3
:10ED00004046BDE8F0810000003005400034054079
:10ED10002E2E5C736F757263655C647269766572C2
:10ED20005C7372635C68633332663436305F646D83
:10ED300061632E63000000002DE9F04105460C469A
:10ED400016460027B84600BF2B48854202D02B4804
:10ED5000854200D104E040F23D4129A000F0A2F834
:10ED600000BF00BF2CB1012C03D0022C01D0032C1A
:10ED700000D104E040F23E4121A000F093F800BF32
:10ED800000BF300C000400B904E040F23F411CA079
:10ED900000F088F800BF00BF05F1480000EB8410C8
:10EDA000006866F31F4005F1480101EB841108601B
:10EDB00000BF15E0781C87B2B7F5805F02D94FF02D
:10EDC00009080DE000BF05F1480000EB8410006861
:10EDD00066F31F4005F1480101EB8411086000BF94
:10EDE00005F1680000EB84100068B6EB104FE1D12C
:10EDF0004046BDE8F0810000003005400034054089
:10EE00002E2E5C736F757263655C647269766572D1
:10EE10005C7372635C68633332663436305F646D92
:10EE200061632E630000000070B504460D4616466F
:10EE300000BF0F48844202D00E48844200D104E053
:10EE40004FF4C4610CA000F02DF800BF08488442C4
:10EE500005D1134901EB8500C0F8146807E00548A7
:10EE6000844204D10E4901EB8500C0F8246870BDCE
:10EE700000300540003405402E2E5C736F757263C0
:10EE8000655C6472697665725C7372635C68633337
:10EE900032663436305F646D61632E6300000000BB
:10EEA0000000014000BFFEE708B5094A116842F2C0
:10EEB0001072B1FBF2F106E0009100BF009A531E00
:10EEC0000093002AFAD1021EA0F10100F4D108BD7E
:10EED0000080FF1F10B5AFF3008010BD002107E0D8
:10EEE00046F2A81100BF0A1EA1F1010399B2FAD19E
:10EEF000021EA0F1010398B2F2D1704710B504468A
:10EF000000BF0CB1012C00D103E0EE2105A0FFF7FA
:10EF1000C9FF00BF0C48006864F310400A4908604C
:10EF200010BD00002E2E5C736F757263655C647299
:10EF3000697665725C7372635C686333326634361B
:10EF4000305F65666D2E6300080401400448006868
:10EF5000012804D143F2102001490860086070477D
:10EF60000004014010B5044600BFECB1012C1BD0D9
:10EF7000022C19D0032C17D0042C15D0052C13D03B
:10EF8000062C11D0072C0FD0082C0DD0092C0BD03B
:10EF90000A2C09D00B2C07D00C2C05D00D2C03D03B
:10EFA0000E2C01D00F2C00D103E0DA2105A0FFF7D1
:10EFB00079FF00BF0C48006864F307100A49086035
:10EFC00010BD00002E2E5C736F757263655C6472F9
:10EFD000697665725C7372635C686333326634367B
:10EFE000305F65666D2E63000804014040F2231017
:10EFF0000249086043F21020086070470004014095
:10F000001CB500BF00200090019000BF01208DF8CA
:10F01000000000208DF8020001208DF804006A46EF
:10F020001021002001F06AFC6A460421022001F050
:10F0300065FC6A461021022001F060FC6A464FF42C
:10F040000071012001F05AFC6A464021002001F0C5
:10F0500055FC6A464FF40071012001F04FFC10216D
:10F06000022001F083FD1021002001F07FFD1CBD76
:10F070001CB500BF00200090019000BF8DF800007B
:10F080008DF802008DF804006A468021012001F00D
:10F0900035FC1CBD10B5AFF3008010BD00B58BB0C2
:10F0A00000BF002009900A9000BF00BF04900590A7
:10F0B00000BF00BF06900790089000BF00BF0390FC
:10F0C00000BF00BF0190029000BF0121042001F0A9
:10F0D0008BFE0121480401F003FE0023042280215D
:10F0E000184601F079FD04208DF8240000208DF8E9
:10F0F000250001208DF8260000208DF82700FA2039
:10F10000ADF8280009A9274803F0A8FC0020ADF8B5
:10F1100018008DF81A008DF81B008DF81C000120D6
:10F120008DF81D0000208DF81E008DF81F000120B5
:10F130008DF8200000208DF82100BDF81800ADF8F2
:10F14000220006AA0421174803F09CFD0122042195
:10F15000144803F02FFD00208DF81A008DF81B00D5
:10F16000012208210F4803F035FF01208DF80E0021
:10F1700000208DF80D008DF80C0003A9094803F05C
:10F18000B5FE08488030006820F00100401C0549A9
:10F19000C1F8800000220421024803F00BFD0BB0EF
:10F1A00000BD00000050014000B58BB000BF002042
:10F1B00009900A9000BF00BF0490059000BF00BFF7
:10F1C00006900790089000BF00BF039000BF00BFEB
:10F1D0000190029000BF0121082001F005FE0121ED
:10F1E000480401F07DFD002304220221184601F0AD
:10F1F000F3FC04208DF8240000208DF82500012068
:10F200008DF8260000208DF82700FA20ADF82800A0
:10F2100009A9274803F022FC0020ADF818008DF85A
:10F220001A008DF81B008DF81C0001208DF81D00C0
:10F2300000208DF81E008DF81F0001208DF82000A1
:10F2400000208DF82100BDF81800ADF8220006AAB4
:10F250000121174803F016FD01221146144803F05E
:10F26000A9FC00208DF81A008DF81B00012208214E
:10F270000F4803F0AFFE01208DF80E0000208DF83E
:10F280000D008DF80C0003A9094803F02FFE084873
:10F290008030006820F00100401C05498031086082
:10F2A00000220121024803F085FC0BB000BD0000E4
:10F2B0000054014070B504460D4694F88F0018B90B
:10F2C00094F88E00A84200D170BD25B1204600F010
:10F2D00000F900B9F8E7FDB1204600F0B9F8208543
:10F2E000B4F92400B0F5806F02DAB4F9240000E02C
:10F2F00000200146204600F031FA04F16C0004F0D1
:10F30000E5F804F17C0004F0E1F8002084F82A001C
:10F31000012084F88E0007E0B4F92810204600F0A0
:10F320001DFA002084F88E0000BFCDE72DE9F041E2
:10F330000446002004F8650F6070E070A070653C22
:10F3400004F16C0004F0C2F804F17C0004F0BEF893
:10F35000002004F88C0F04F8620CA070E0708C3C64
:10F360001548D0F89850D0F89C60D0F8A07004F1FF
:10F37000300001F0E9F900212846FDF7AFFA0CD181
:10F3800000213046FDF7AAFA07D100213846FDF7E3
:10F39000A5FA02D1094D0A4E002725636663A763CB
:10F3A000002104F1300001F0E9F90649204604F09B
:10F3B000A6F8BDE8F08100009080FF1F0000A84182
:10F3C000CDCC4C3E40420F0070B504460D4625B1F1
:10F3D00094F89010204600F0B3F984F88F5070BD77
:10F3E00010B50446012084F865000021204600F095
:10F3F000B5F994F89000002101F0BEFE94F8901049
:10F4000094F8680001F046F810BD00000246D36D84
:10F4100092F8900001280ED0022808D0032805D0C9
:10F42000042809D10848B0F9001005E004E00748B5
:10F43000B0F9001000E000BF00BF8B4201DD581A98
:10F4400000E0C81A00B27047EC84FF1FEE84FF1F73
:10F45000014691F88E0010B1B1F9280000E0C86DA6
:10F4600000B27047014691F88E0038B991F88F00CC
:10F4700020B9B1F92400B0F5806F01DB002070479E
:10F4800091F82A0070B9B1F92420C86D801E82421B
:10F4900008DBB1F92420C86D801C824202DC012007
:10F4A00081F82A0091F82A00E9E700B503461846DA
:10F4B000FFF7CEFFB3F92410884208DA1846FFF7A9
:10F4C000D1FF20B993F8650008B9012000BD0020E4
:10F4D000FCE700B50346D86D002808DD1846FFF7A5
:10F4E000C1FF20B993F8650008B9012000BD0020D4
:10F4F000FCE700002DE9F047044694F88F0008B1BE
:10F50000BDE8F08794F8900001280ED0022808D0BA
:10F51000032805D0042809D107F076FB064605E04C
:10F5200004E003F0C7FE064600E000BF00BF052E62
:10F5300019D2DFE806F005030419090000BFDFE770
:10F54000002084F8660021E014F8660F401C20704B
:10F5500014F866090A2805DD202084F86800204692
:10F56000FFF73EFFCCE700BF14F8660F401C207089
:10F5700014F866090A2805DD022084F86800204690
:10F58000FFF72EFF40F20140A084B9E700BF94F8D6
:10F590009000012810D0022809D0032806D00428A2
:10F5A0000BD16448B0F90000A08406E005E0624891
:10F5B000B0F90000A08400E000BF00BF94F88E0006
:10F5C00000285BD194F86780B4F92400B0F5877FF8
:10F5D0000EDD14F8670F401C207014F867090A2824
:10F5E00006DD042084F868002046FFF7F9FE87E76F
:10F5F00094F88C00E8B904F17C0003F06BFFC0B113
:10F60000B4F92410B4F92600401D81420EDA14F832
:10F61000670F401C207014F867090A2809DD0820CC
:10F6200084F868002046FFF7DBFE69E7012084F8D4
:10F630008C0004F16C0003F04DFFC0B12046FFF7D1
:10F6400011FFA0B1B4F92410E06D1E3881420EDA2A
:10F6500014F8670F401C207014F867090A2806DDAB
:10F66000102084F868002046FFF7BAFE48E794F8B7
:10F670006700F02802DBF02084F8670094F865004A
:10F6800000B13DE72D49204603F039FFB4F92410BD
:10F69000E06D471A94F8640048B10F2F07DA002094
:10F6A00084F8640004F1300001F059F807E094F8A0
:10F6B000640020B9192F02DD012084F8640094F859
:10F6C000640078B194F89000022805D194F8900075
:10F6D000C82101F051FD2BE094F89000FA2101F0CF
:10F6E0004BFD25E00025E06DE8B1B4F92400FDF7FD
:10F6F00015F88146494604F1300000F0BBFF05468D
:10F7000094F89000022807D1332D01DA00250AE091
:10F71000C82D08DDC82506E0332D01DA002502E0FA
:10F72000FA2D00DDFA25A9B294F8900001F024FD2D
:10F7300000BFE5E6EC84FF1FEE84FF1F40420F0090
:10F7400070B504460D460020A084E084208584F82E
:10F7500090502046FFF7EAFD70BD000070B50446EA
:10F760000D4694F89000022801D1782001E04FF472
:10F7700087700646B54201DD354602E0002D00DA0D
:10F780000025002D05DD2348007820F040002149A8
:10F790000870002084F82A0094F8650010B994F8E5
:10F7A0008F0028B1002104F1300000F0E7FF70BDA8
:10F7B000A08CE084002084F88C0084F867001E2D63
:10F7C00018DDB4F92400401DA84209DAB4F9240078
:10F7D000322805DA104904F17C0003F090FE03E0C2
:10F7E00004F17C0003F072FE0C4904F16C0003F09C
:10F7F00086FE07E004F16C0003F068FE04F17C0073
:10F8000003F064FE294604F1300000F0B7FF00BFAA
:10F81000CDE700008180FF1F005A620200A3E111C2
:10F820002DE9F04100240027002500263348FFF78A
:10F8300050FE40B93248FFF74CFE20B93148FFF77F
:10F8400048FE002851D02F48FFF743FE60B12D48F5
:10F85000FFF7DCFD400005B22A48FFF7F9FD400044
:10F8600004B24FF487760FE0244890F88E0018B168
:10F8700000212248FFF71EFD214890F88E0018B1A4
:10F8800000211F48FFF716FD1C48FFF722FE80B13C
:10F890001A4890F88E0060B91848FFF7B7FD284461
:10F8A00005B21648FFF7D4FD204404B206F5877070
:10F8B00006B21348FFF70DFE80B1114890F88E0094
:10F8C00060B90F48FFF7A2FD284405B20C48FFF7C6
:10F8D000BFFD204404B206F1780006B2AC4202DA61
:10F8E000301B07B207E0274605E00748007810B153
:10F8F000002005490870BDE8F0810000CC87FF1F9B
:10F900007888FF1F2489FF1F8280FF1F10B50348DE
:10F91000006810B101490868804710BD289DFF1F8D
:10F9200010B50348406810B101494868804710BDD0
:10F93000289DFF1F10B50348806810B101498868F1
:10F94000804710BD289DFF1F10B50348C06810B147
:10F950000149C868804710BD289DFF1F10B50348A6
:10F96000006910B101490869804710BD289DFF1F3B
:10F9700010B50348406910B101494869804710BD7E
:10F98000289DFF1F10B50348806910B1014988699F
:10F99000804710BD289DFF1F10B50348C06910B1F6
:10F9A0000149C869804710BD289DFF1F10B5034855
:10F9B000006A10B10149086A804710BD289DFF1FE9
:10F9C00010B50348406A10B10149486A804710BD2C
:10F9D000289DFF1F10B50348806A10B10149886A4D
:10F9E000804710BD289DFF1F10B50348C06A10B1A5
:10F9F0000149C86A804710BD289DFF1F10B5034804
:10FA0000006B10B10149086B804710BD289DFF1F96
:10FA100010B50348406B10B10149486B804710BDD9
:10FA2000289DFF1F10B50348806B10B10149886BFA
:10FA3000804710BD289DFF1F10B50348C06B10B153
:10FA40000149C86B804710BD289DFF1F10B50348B2
:10FA5000006C10B10149086C804710BD289DFF1F44
:10FA600010B50348406C10B10149486C804710BD87
:10FA7000289DFF1F10B50348806C10B10149886CA8
:10FA8000804710BD289DFF1F10B50348C06C10B102
:10FA90000149C86C804710BD289DFF1F10B5034861
:10FAA000006D10B10149086D804710BD289DFF1FF2
:10FAB00010B50348406D10B10149486D804710BD35
:10FAC000289DFF1F10B50348806D10B10149886D56
:10FAD000804710BD289DFF1F10B50348C06D10B1B1
:10FAE0000149C86D804710BD289DFF1F10B5034810
:10FAF000006E10B10149086E804710BD289DFF1FA0
:10FB000010B50348406E10B10149486E804710BDE2
:10FB1000289DFF1F10B50348806E10B10149886E03
:10FB2000804710BD289DFF1F10B50348C06E10B15F
:10FB30000149C86E804710BD289DFF1F10B50348BE
:10FB4000006F10B10149086F804710BD289DFF1F4D
:10FB500010B50348406F10B10149486F804710BD90
:10FB6000289DFF1F10B50348806F10B10149886FB1
:10FB7000804710BD289DFF1F10B50348C06F10B10E
:10FB80000149C86F804710BD289DFF1F10B504486C
:10FB9000D0F8800018B10249D1F88000804710BD2C
:10FBA000289DFF1F10B50448D0F8840018B1024901
:10FBB000D1F88400804710BD289DFF1F10B5044870
:10FBC000D0F8880018B10249D1F88800804710BDEC
:10FBD000289DFF1F10B50448D0F88C0018B10249C9
:10FBE000D1F88C00804710BD289DFF1F10B5044838
:10FBF000D0F8900018B10249D1F89000804710BDAC
:10FC0000289DFF1F10B50448D0F8940018B1024990
:10FC1000D1F89400804710BD289DFF1F10B50448FF
:10FC2000D0F8980018B10249D1F89800804710BD6B
:10FC3000289DFF1F10B50448D0F89C0018B1024958
:10FC4000D1F89C00804710BD289DFF1F10B50448C7
:10FC5000D0F8A00018B10249D1F8A000804710BD2B
:10FC6000289DFF1F10B50448D0F8A40018B1024920
:10FC7000D1F8A400804710BD289DFF1F10B504488F
:10FC8000D0F8A80018B10249D1F8A800804710BDEB
:10FC9000289DFF1F10B50448D0F8AC0018B10249E8
:10FCA000D1F8AC00804710BD289DFF1F10B5044857
:10FCB000D0F8B00018B10249D1F8B000804710BDAB
:10FCC000289DFF1F10B50448D0F8B40018B10249B0
:10FCD000D1F8B400804710BD289DFF1F10B504481F
:10FCE000D0F8B80018B10249D1F8B800804710BD6B
:10FCF000289DFF1F10B50448D0F8BC0018B1024978
:10FD0000D1F8BC00804710BD289DFF1F10B50448E6
:10FD1000D0F8C00018B10249D1F8C000804710BD2A
:10FD2000289DFF1F10B50448D0F8C40018B102493F
:10FD3000D1F8C400804710BD289DFF1F10B50448AE
:10FD4000D0F8C80018B10249D1F8C800804710BDEA
:10FD5000289DFF1F10B50448D0F8CC0018B1024907
:10FD6000D1F8CC00804710BD289DFF1F10B5044876
:10FD7000D0F8D00018B10249D1F8D000804710BDAA
:10FD8000289DFF1F10B50448D0F8D40018B10249CF
:10FD9000D1F8D400804710BD289DFF1F10B504483E
:10FDA000D0F8D80018B10249D1F8D800804710BD6A
:10FDB000289DFF1F10B50448D0F8DC0018B1024997
:10FDC000D1F8DC00804710BD289DFF1F10B5044806
:10FDD000D0F8E00018B10249D1F8E000804710BD2A
:10FDE000289DFF1F10B50448D0F8E40018B102495F
:10FDF000D1F8E400804710BD289DFF1F10B50448CE
:10FE0000D0F8E80018B10249D1F8E800804710BDE9
:10FE1000289DFF1F10B50448D0F8EC0018B1024926
:10FE2000D1F8EC00804710BD289DFF1F10B5044895
:10FE3000D0F8F00018B10249D1F8F000804710BDA9
:10FE4000289DFF1F10B50448D0F8F40018B10249EE
:10FE5000D1F8F400804710BD289DFF1F10B504485D
:10FE6000D0F8F80018B10249D1F8F800804710BD69
:10FE7000289DFF1F10B50448D0F8FC0018B10249B6
:10FE8000D1F8FC00804710BD289DFF1F10B5044825
:10FE9000D0F8000118B10249D1F80001804710BD27
:10FEA000289DFF1F10B50448D0F8040118B102497D
:10FEB000D1F80401804710BD289DFF1F10B50448EC
:10FEC000D0F8080118B10249D1F80801804710BDE7
:10FED000289DFF1F10B50448D0F80C0118B1024945
:10FEE000D1F80C01804710BD289DFF1F10B50448B4
:10FEF000D0F8100118B10249D1F81001804710BDA7
:10FF0000289DFF1F10B50448D0F8140118B102490C
:10FF1000D1F81401804710BD289DFF1F10B504487B
:10FF2000D0F8180118B10249D1F81801804710BD66
:10FF3000289DFF1F10B50448D0F81C0118B10249D4
:10FF4000D1F81C01804710BD289DFF1F10B5044843
:10FF5000D0F8200118B10249D1F82001804710BD26
:10FF6000289DFF1F10B50448D0F8240118B102499C
:10FF7000D1F82401804710BD289DFF1F10B504480B
:10FF8000D0F8280118B10249D1F82801804710BDE6
:10FF9000289DFF1F10B50448D0F82C0118B1024964
:10FFA000D1F82C01804710BD289DFF1F10B50448D3
:10FFB000D0F8300118B10249D1F83001804710BDA6
:10FFC000289DFF1F10B50448D0F8340118B102492C
:10FFD000D1F83401804710BD289DFF1F10B504489B
:10FFE000D0F8380118B10249D1F83801804710BD66
:10FFF000289DFF1F10B50448D0F83C0118B10249F4
:020000040001F9
:10000000D1F83C01804710BD289DFF1F10B5044862
:10001000D0F8400118B10249D1F84001804710BD25
:10002000289DFF1F10B50448D0F8440118B10249BB
:10003000D1F84401804710BD289DFF1F10B504482A
:10004000D0F8480118B10249D1F84801804710BDE5
:10005000289DFF1F10B50448D0F84C0118B1024983
:10006000D1F84C01804710BD289DFF1F10B50448F2
:10007000D0F8500118B10249D1F85001804710BDA5
:10008000289DFF1F10B50448D0F8540118B102494B
:10009000D1F85401804710BD289DFF1F10B50448BA
:1000A000D0F8580118B10249D1F85801804710BD65
:1000B000289DFF1F10B50448D0F85C0118B1024913
:1000C000D1F85C01804710BD289DFF1F10B5044882
:1000D000D0F8600118B10249D1F86001804710BD25
:1000E000289DFF1F10B50448D0F8640118B10249DB
:1000F000D1F86401804710BD289DFF1F10B504484A
:10010000D0F8680118B10249D1F86801804710BDE4
:10011000289DFF1F10B50448D0F86C0118B10249A2
:10012000D1F86C01804710BD289DFF1F10B5044811
:10013000D0F8700118B10249D1F87001804710BDA4
:10014000289DFF1F10B50448D0F8740118B102496A
:10015000D1F87401804710BD289DFF1F10B50448D9
:10016000D0F8780118B10249D1F87801804710BD64
:10017000289DFF1F10B50448D0F87C0118B1024932
:10018000D1F87C01804710BD289DFF1F10B50448A1
:10019000D0F8800118B10249D1F88001804710BD24
:1001A000289DFF1F10B50448D0F8840118B10249FA
:1001B000D1F88401804710BD289DFF1F10B5044869
:1001C000D0F8880118B10249D1F88801804710BDE4
:1001D000289DFF1F10B50448D0F88C0118B10249C2
:1001E000D1F88C01804710BD289DFF1F10B5044831
:1001F000D0F8900118B10249D1F89001804710BDA4
:10020000289DFF1F10B50448D0F8940118B1024989
:10021000D1F89401804710BD289DFF1F10B50448F8
:10022000D0F8980118B10249D1F89801804710BD63
:10023000289DFF1F10B50448D0F89C0118B1024951
:10024000D1F89C01804710BD289DFF1F10B50448C0
:10025000D0F8A00118B10249D1F8A001804710BD23
:10026000289DFF1F10B50448D0F8A40118B1024919
:10027000D1F8A401804710BD289DFF1F10B5044888
:10028000D0F8A80118B10249D1F8A801804710BDE3
:10029000289DFF1F10B50448D0F8AC0118B10249E1
:1002A000D1F8AC01804710BD289DFF1F10B5044850
:1002B000D0F8B00118B10249D1F8B001804710BDA3
:1002C000289DFF1F10B50448D0F8B40118B10249A9
:1002D000D1F8B401804710BD289DFF1F10B5044818
:1002E000D0F8B80118B10249D1F8B801804710BD63
:1002F000289DFF1F10B50448D0F8BC0118B1024971
:10030000D1F8BC01804710BD289DFF1F10B50448DF
:10031000D0F8C00118B10249D1F8C001804710BD22
:10032000289DFF1F10B50448D0F8C40118B1024938
:10033000D1F8C401804710BD289DFF1F10B50448A7
:10034000D0F8C80118B10249D1F8C801804710BDE2
:10035000289DFF1F10B50448D0F8CC0118B1024900
:10036000D1F8CC01804710BD289DFF1F10B504486F
:10037000D0F8D00118B10249D1F8D001804710BDA2
:10038000289DFF1F10B50448D0F8D40118B10249C8
:10039000D1F8D401804710BD289DFF1F10B5044837
:1003A000D0F8D80118B10249D1F8D801804710BD62
:1003B000289DFF1F10B50448D0F8DC0118B1024990
:1003C000D1F8DC01804710BD289DFF1F10B50448FF
:1003D000D0F8E00118B10249D1F8E001804710BD22
:1003E000289DFF1F10B50448D0F8E40118B1024958
:1003F000D1F8E401804710BD289DFF1F10B50448C7
:10040000D0F8E80118B10249D1F8E801804710BDE1
:10041000289DFF1F10B50448D0F8EC0118B102491F
:10042000D1F8EC01804710BD289DFF1F10B504488E
:10043000D0F8F00118B10249D1F8F001804710BDA1
:10044000289DFF1F10B50448D0F8F40118B10249E7
:10045000D1F8F401804710BD289DFF1F10B5044856
:10046000D0F8F80118B10249D1F8F801804710BD61
:10047000289DFF1F10B50448D0F8FC0118B10249AF
:10048000D1F8FC01804710BD289DFF1F10B5AFF3C8
:10049000008010BD114A128802F470420F4B1A807E
:1004A0001A46128802431A80012906DB042904DC5B
:1004B0001A46128842EA01221A80094A10701278FC
:1004C000022A06D1074A127802B170470122054B71
:1004D0001A70054A117000BFF7E700007C80FF1F0B
:1004E0007E80FF1F7F80FF1F7A80FF1F1CB50024C6
:1004F00000BF00200090019000BF01208DF8000097
:100500008DF804006A460121084600F0F7F96A46B2
:100510000221012000F0F2F96A464FF480610120C7
:1005200000F0ECF96A464FF40061012000F0E6F9B2
:100530000121084600F0E4FA4FF40061012000F0C8
:10054000DFFA0221012000F0DBFA4FF48061012084
:1005500000F0D6FA6420FEF7C1FC00BF03E003F010
:100560009BF8601CC4B2032CF9DB0221012000F0CF
:10057000FDFA4FF48061012000F0C2FA6420FEF71A
:10058000ADFC002403E003F0A5F8601CC4B2032C0A
:10059000F9DB0221012000F0E9FA4FF4806101202B
:1005A00000F0E4FA6420FEF799FC002403E003F075
:1005B000AFF8601CC4B2032CF9DB0221012000F06B
:1005C0009FFA4FF48061012000F0D0FA6420FEF71A
:1005D00085FC002403E003F045F8601CC4B2032C42
:1005E000F9DB6420FEF77AFC4FF40061012000F093
:1005F000BDFA00208DF8000001208DF802008DF872
:1006000004006A46022100F079F96A464FF48061DD
:10061000012000F073F91CBD10B500F001F810BD09
:1006200010B500BF0648006800B104E04FF49271B5
:1006300004A0FEF737FC00BF01480068804710BDEA
:100640000C85FF1F2E2E5C736F757263655C647280
:10065000697665725C7372635C68633332663436E4
:10066000305F6578696E745F6E6D695F7377692E50
:10067000630000002DE9F84F04460F46E06AFCF7DE
:100680004DF883463946FBF7F2FE05462946A06A37
:10069000FBF79BFEA0624FF08741A06AFCF728F9A8
:1006A00003D24FF08740A06206E02649A06AFCF71B
:1006B00015F901D22348A06228462168FBF7DDFE28
:1006C00080466168A06AFBF7D8FE81462846616AC9
:1006D000FBF7CDFE064694F8203004F10C0252F8E8
:1006E0002310E069FBF7C3FEE06194F8201004F1E9
:1006F0000C0040F821603146E069FBF766FEE061DE
:1007000094F82010481CC11700EB91718910A0EBE0
:10071000810184F82010A168E069FBF7AEFE8246F3
:10072000656249464046FBF750FE51460090FBF794
:100730004CFE8346FCF70DF840002063206BBDE8BB
:10074000F88F0000000080C300B503460020D86287
:10075000986058601860184600F001F800BD00214C
:100760008162416280F82010C16000220261426112
:10077000826180F82010C1610163704710B50346A3
:100780000C46D96A081B002801DB014600E0414203
:100790000A2902DD1846FFF7E2FFDC6210BD000007
:1007A00070B504460D4600BF1F2C00D804E040F28F
:1007B000231113A0FEF776FB00BF00BF0DB1012D82
:1007C00000D104E04FF492710DA0FEF76BFB00BF67
:1007D00000F07EFA012D07D11348008804F01F01B4
:1007E00008431149088006E00F48008804F01F0103
:1007F00088430D49088000F07BF9002070BD00009F
:100800002E2E5C736F757263655C647269766572B7
:100810005C7372635C68633332663436305F677072
:10082000696F2E6300000000F43B054070B505467B
:100830000C4600BF4DB1012D07D0022D05D0032D70
:1008400003D0042D01D0052D00D104E04FF4C87170
:100850001FA0FEF727FB00BF00BF012C25D0022CF4
:1008600023D0042C21D0082C1FD0102C1DD0202CDC
:100870001BD0402C19D0802C17D0B4F5807F14D019
:10088000B4F5007F11D0B4F5806F0ED0B4F5006FD1
:100890000BD0B4F5805F08D0B4F5005F05D0B4F597
:1008A000804F02D0B4F5004F00D104E040F2911126
:1008B00007A0FEF7F7FA00BF0F48102101FB05065D
:1008C0003068204008B1012070BD0020FCE7000026
:1008D0002E2E5C736F757263655C647269766572E7
:1008E0005C7372635C68633332663436305F6770A2
:1008F000696F2E6300000000003805402DE9F047C5
:10090000064689461446002700BF4EB1012E07D087
:10091000022E05D0032E03D0042E01D0052E00D1C7
:1009200003E0AC2167A0FEF7BDFA00BF00BF20784E
:1009300028B12078012802D02078022800D103E0D5
:10094000AE2160A0FEF7AEFA00BF00BF607928B10B
:100950006079012802D06079022800D103E0AF213C
:1009600058A0FEF79FFA00BF00BFA07910B1A07990
:10097000012800D103E0B02152A0FEF793FA00BF96
:1009800000BF607810B16078012800D103E0B12188
:100990004CA0FEF787FA00BF00BFA07810B1A07886
:1009A000012800D103E0B22146A0FEF77BFA00BF88
:1009B00000BFE07810B1E078012800D103E0B32156
:1009C00040A0FEF76FFA00BF00BF207910B1207978
:1009D000012800D103E0B4213AA0FEF763FA00BF7A
:1009E00000BFE07910B1E079012800D103E0B52122
:1009F00034A0FEF757FA00BF00F06AF900275AE06A
:100A00000120B84000EA090078B3384800EB8610AE
:100A100000EB87053548801C00EB861000EB87084B
:100A20006178288861F38E302880A178288861F366
:100A30000C302880E178288861F3492028802179CA
:100A4000288861F386102880A179288861F38200C4
:100A500028806179288861F305102880207828B1E2
:100A600001280CD002281BD113E022E0288820F4B2
:100A700000402880288820F00200288011E0288883
:100A800020F400402880288820F00200801C288064
:100A900007E0288820F4004000F50040288000E0AE
:100AA00000BF00BFE179B8F8000061F30820A8F8A2
:100AB0000000781CC7B2102FA2D300F019F8002054
:100AC000BDE8F0872E2E5C736F757263655C64728F
:100AD000697665725C7372635C6863333266343660
:100AE000305F6770696F2E6300000000003C0540B6
:100AF0004FF425400149088070470000FC3B054049
:100B000070B504460E4600BF4CB1012C07D0022C34
:100B100005D0032C03D0042C01D0052C00D104E017
:100B200040F20F2106A0FEF7BDF900BF0E481021CC
:100B300001FB0405288830432880002070BD000098
:100B40002E2E5C736F757263655C64726976657274
:100B50005C7372635C68633332663436305F67702F
:100B6000696F2E63000000000A38054070B5044626
:100B70000E4600BF4CB1012C07D0022C05D0032C2F
:100B800003D0042C01D0052C00D104E040F2F71171
:100B900006A0FEF787F900BF0E48102101FB0405EF
:100BA000288830432880002070BD00002E2E5C7302
:100BB0006F757263655C6472697665725C7372638B
:100BC0005C68633332663436305F6770696F2E63FA
:100BD00000000000083805402DE9F0470546894629
:100BE00014461F464FF0000800BF4DB1012D07D03D
:100BF000022D05D0032D03D0042D01D0052D00D1E9
:100C000004E04FF41A7127A0FEF74CF900BF00BFB3
:100C10005CB1012C01DB0A2C07DD0E2C05D00F2C5A
:100C200003D0202C02DB3B2C00DC04E040F26921E5
:100C30001CA0FEF737F900BF00BF0FB1012F00D194
:100C400004E040F26A2117A0FEF72CF900BF00F083
:100C50003FF84FF000081DE0012000FA08F000EA1C
:100C6000090098B11948402101FB0500042101FB4E
:100C70000806308864F305003080012F01D101207F
:100C800000E00020318860F30821318008F1010084
:100C900000F0FF08B8F1100FDED3FFF729FF0020A6
:100CA000BDE8F0872E2E5C736F757263655C6472AD
:100CB000697665725C7372635C686333326634367E
:100CC000305F6770696F2E6300000000023C0540D2
:100CD0004AF201500149088070470000FC3B054082
:100CE00070B504460D4600BF1448204008B904B151
:100CF00004E040F2862112A0FEF7D4F800BF00BF46
:100D00000DB1012D00D104E040F287210CA0FEF7C7
:100D1000C9F800BF134814490861012D04D10846E1
:100D20000068A043086004E00F48006820430E49B3
:100D300008600C48401E0C49086170BDEE3A0C700A
:100D40002E2E5C736F757263655C64726976657272
:100D50005C7372635C68633332663436305F70771D
:100D6000632E63000100A5A50080044070B5044611
:100D70000D4600BF1148204008B904B104E040F21C
:100D8000BF210FA0FEF78EF800BF00BF0DB1012DEF
:100D900000D104E04FF4307109A0FEF783F800BFE2
:100DA000012D05D10F484068A0430E49486004E07A
:100DB0000C48406820430B49486070BD8602F0F043
:100DC0002E2E5C736F757263655C647269766572F2
:100DD0005C7372635C68633332663436305F70779D
:100DE000632E63000080044070B504460D4600BFCA
:100DF0001148204008B904B104E04FF43C710FA041
:100E0000FEF750F800BF00BF0DB1012D00D104E086
:100E100040F2F12109A0FEF745F800BF012D05D1F0
:100E20000F488068A0430E49886004E00C48806841
:100E300020430B49886070BD0078F8FF2E2E5C734C
:100E40006F757263655C6472697665725C737263F8
:100E50005C68633332663436305F7077632E6300CC
:100E60000080044070B504460D4600BF41F21310E7
:100E700024EA000008B904B104E040F215310EA0E4
:100E8000FEF710F800BF00BF0DB1012D00D104E046
:100E900040F2163108A0FEF705F800BF012D05D17C
:100EA0000E48C068A0430D49C86004E00B48C06804
:100EB00020430A49C86070BD2E2E5C736F75726343
:100EC000655C6472697665725C7372635C686333D7
:100ED00032663436305F7077632E630000800440E2
:100EE00000B58BB000BF002009900A9000BF00BF82
:100EF0000490059000BF00BF06900790089000BFC7
:100F000000BF039000BF00BF0190029000BF01210D
:100F10002020FFF769FF01214804FFF7E1FE0023CD
:100F20000422D1010120FFF757FE04208DF8240090
:100F300000208DF8250001208DF8260000208DF876
:100F400027006420ADF8280009A9274801F086FD94
:100F50000020ADF818008DF81A008DF81B008DF8F0
:100F60001C0001208DF81D0000208DF81E008DF85A
:100F70001F0001208DF8200000208DF82100BDF811
:100F80001800ADF8220006AA0321174801F07AFEE6
:100F900001220321144801F00DFE00208DF81A00F3
:100FA0008DF81B00012208210F4802F013F80120E0
:100FB0008DF80E0000208DF80D008DF80C0003A9AF
:100FC000094801F093FF08488030006820F00100D4
:100FD000401C05498031086000220321024801F0CD
:100FE000E9FD0BB000BD0000005C014010B5AFF39F
:100FF000008010BD002200214AF202500F4B1880E1
:1010000000BF491C0E48008820F4004000F5004055
:101010000B4BC03BA3F8C00009480288B1F5805FC4
:1010200001D0002AEDD14FF42540044B1880B1F5D2
:10103000805F01D3092070470020FCE7FE43054094
:10104000C040054010B5AFF3008010BD2DE9F04F52
:1010500087B004468B460026B14600BF00200690AC
:1010600000254FF0FF3A042005903E48844208D006
:101070003D48844205D03D48844202D03C488442E9
:101080006BD1204602F0DEFE0646002E65D0D94622
:101090004846FBF74CFB4FF081410190FBF7EDF91F
:1010A00003903046FBF743FB02900399FBF717FAD6
:1010B0004FF07E510490FBF7DAF906900698FBF7A3
:1010C00061FB054600210698FBF708FC45D3FF2D80
:1010D00043D8002005902846FBF729FB039006998A
:1010E000FBF7C8F923490490FBF702FC21D200204A
:1010F0006A1C40410021A2FB097300FB093002FB7E
:1011000001084FF480610020A7FB012308FB013197
:1011100007FB0010CDE9022032460023DDE9020181
:10112000FBF7E4F8B0F1800ABAF17F0F01D904208F
:101130000590059888B9BAF17F0F01D8012100E028
:101140000021E06861F35D70E060A0686AF306006A
:10115000A060A06865F30F20A060059807B0BDE807
:10116000F08F000000D0014000D401400010024088
:1011700000140240ACC5273770B505460E4634460C
:10118000012D2AD0022D15D0032D25D0042D25D1D7
:101190002CB900220121134801F00CFD09E00122C5
:1011A0001146104801F006FD224601210D4801F0CC
:1011B000C5FF14E02CB9002204210B4801F0FAFC11
:1011C00009E001220421084801F0F4FC2246042130
:1011D000054801F0B3FF02E001E000E000BF00BFFE
:1011E00070BD000000540140005001402DE9F34F54
:1011F0008DB004460026B146B24600200C9000BFD8
:1012000000254FF0FF3B4B4B0FCB08AF0FC704201F
:1012100007904948844208D04848844205D048484D
:10122000844202D04748844272D1204602F00AFE2E
:101230008146B9F1000F79D00E9E6069C0F342502B
:1012400008A931F810A05046FBF771FA0290304619
:10125000FBF76DFA01900299FBF70FF94FF080410F
:101260000390FBF70AF905904846FBF760FA0490F3
:101270000599FBF734F94FF07E510690FBF7F7F82C
:101280000C900C98FBF77EFA054600210C98FBF7B2
:1012900025FB4BD3FF2D49D8002007902846FBF7AC
:1012A00046FA05900C99FBF7E5F827490690FBF7FD
:1012B0001FFB26D200206A1C40410023A2FB061C13
:1012C00000FB06C002FB03021846A1FB0A7302FBE7
:1012D0000A3201FB00284FF400710022A7FB010332
:1012E00008FB013107FB02114A460023CDE9040146
:1012F000FAF7FCFFB0F1800BBBF17F0F01D904209E
:101300000790079820B9BBF17F0F02D8012101E0B7
:101310000CE00021E06861F35D70E060A0686BF3B1
:101320000600A060A06865F30F20A06007980FB0CA
:10133000BDE8F08FC0A8010000D0014000D40140FA
:101340000010024000140240ACC527372DE9F34FCE
:1013500089B004460026B146B2460020089000BF7E
:1013600000254FF0FF3B042007904F48844208D0EF
:101370004E48844205D04E48844202D04D488442B3
:101380007ED1204602F05EFD8146B9F1000F77D094
:101390000A9EE068C0F3C03A5046FBF7C8F94FF028
:1013A00080410190FBF766F803903046FBF7BFF9E8
:1013B0004FF082410190FBF760F802900399FBF730
:1013C0005CF805904846FBF7B2F904900599FBF7E5
:1013D00086F84FF07E510690FBF749F80890089880
:1013E000FBF7D0F9054600210898FBF777FA57D3A9
:1013F000FF2D55D8002007902846FBF798F9059057
:101400000899FBF737F82C490690FBF771FA31D2AF
:10141000002210461346DAF1020260EB03030021BA
:101420004FF0010C15EB0C0C4941A2FB0C0E03FB19
:101430000CE302FB01320021A0FB067302FB063223
:1014400000FB01284FF400610020A7FB012308FBEB
:10145000013107FB0010CDE904204A460023DDE9F5
:101460000401FAF743FFB0F1800BBBF17F0F01D904
:1014700004200790079818B9BBF17F0F03D800E04C
:101480000EE0012100E00021E06861F35D70E060A2
:10149000A0686BF30600A060A06865F30F20A06051
:1014A00007980BB0BDE8F08F00D0014000D4014098
:1014B0000010024000140240ACC5273770B5054645
:1014C0000C46012D02D0022D0CD105E02246002150
:1014D000054801F0F7F905E022460121024801F034
:1014E000F1F900BF00BF70BD0044024070B5044672
:1014F00025462DB900220321074801F05BFB09E0D6
:1015000001220321044801F055FB2A460321024829
:1015100001F014FE70BD0000005C014010B500F049
:101520000DF810BD034800680349096808440149E3
:10153000086070471485FF1F1085FF1F10B57548A0
:101540000068643073490860FFF7ECFF7248008858
:10155000401C714908800846008870490978884213
:1015600004DC40210020FFF701FB0FE06B4800780E
:10157000C0F1FF0068490988884204DB402100204F
:10158000FFF7BEFA02E00020634908806448008843
:10159000401C6349088008460088624909788842EF
:1015A0000ADD60480078C0F164005D49098888421E
:1015B00002DA00205A4908805B480078401C5A49EA
:1015C00008700846007859490978884204DC1021DF
:1015D0000020FFF7CBFA0FE054480078C0F1640018
:1015E00051490978884204DB10210020FFF788FA6E
:1015F00002E000204C4908704D480078401CC0B201
:101600004B490870322831DB0020087049480078C7
:1016100000B349480078401EC0B24749087000280E
:1016200021DD4648007828B14FF480510020FFF7B3
:1016300067FA04E04FF480510020FFF797FA404822
:101640000078012807D100203D4908704FF400417F
:10165000FFF78CFA0AE0012039490870C103002025
:10166000FFF74EFA02E00020324908708021012085
:10167000FFF7DCF828B933480068401C314908609E
:1016800004E000202F4908602F4908702D480068A9
:1016900041F28831884205D300202A4908600120A0
:1016A0002949087008210220FFF7C0F8012805D158
:1016B00026480068401C2549086004E000202349B2
:1016C00008602349087021480068322805D30020AB
:1016D0001E49086001201E49087002210846FFF7D4
:1016E000A5F8012805D11B480068401C194908606D
:1016F00004E0002017490860174908701548006881
:10170000322805D3002013490860012012490870CF
:1017100010BD00008081FF1FD884FF1FD184FF1FF0
:10172000DC84FF1FD284FF1FDA84FF1FD084FF1FD9
:10173000D784FF1FE881FF1FE981FF1FE781FF1F9B
:10174000D684FF1FC484FF1FD384FF1FC884FF1FDC
:10175000D484FF1FCC84FF1FD584FF1F70B50024E5
:101760001320012100220023294D2D7805F00704C4
:10177000062C4AD2DFE804F003070B101419254D9C
:10178000254E356041E0254D234E35603DE04FF458
:101790000045214E356038E0214D1F4E356034E064
:1017A0004FF400451C4E35602FE0194DDA352D6899
:1017B000C5F3C013164D263DD5F80051C5F30720DB
:1017C000134DDA352D68290F114D263DD5F80051FE
:1017D00005F01F025BB9551C114EB6FBF5F5461C12
:1017E00075434E1CB5FBF6F50B4E35600CE0012B36
:1017F0000AD1551C074EB6FBF5F5461C75434E1C29
:10180000B5FBF6F5044E356000BF00BF70BD0000AB
:10181000264005400024F4000080FF1F00127A00DB
:10182000001BB70000B5FFF799FF00BD2DE9F84395
:1018300004460E4615464FF000080027002D70D0D4
:1018400000BFFE48844202D0FD48844200D104E03B
:101850004FF42471FBA0FDF725FB00BF00BF0EB1C4
:10186000012E00D104E040F29121F6A0FDF71AFB11
:1018700000BF00BF2878E8B1287801281AD028785E
:10188000022817D02878032814D02878042811D0EB
:10189000287805280ED0287806280BD02878072825
:1018A00008D02878082805D02878092802D0287878
:1018B0000A2800D104E040F29221E2A0FDF7F2FAFA
:1018C00000BF00BF687810B16878012800D104E03B
:1018D00040F29321DBA0FDF7E5FA00BF00BFA87836
:1018E00010B1A878012800D104E04FF42571D5A0EB
:1018F000FDF7D8FA00BF00BFE87810B1E8780128FA
:1019000000D104E040F29521CEA0FDF7CBFA00BF54
:10191000CA4884420CD15EB900BFE878012801D1E1
:1019200005E0FEE240F29921C6A0FDF7BBFA00BF38
:101930002069009960F30001009120694108009836
:1019400061F34100009020698108009861F38200F2
:101950000090207C8DF8000020690109009861F357
:10196000071000902069010A009861F30820009098
:101970002069410A009861F3492000902069810A9A
:10198000009861F38A200090607C8DF80100206946
:10199000010B009861F30C3000902069410B009816
:1019A00061F34D3000902069810B009861F38E3017
:1019B00000902069C10B009861F3CF30009020693E
:1019C000010C009861F3104000902069410C0098D0
:1019D00061F3514000902069810C009861F39240BE
:1019E0000090A07C8DF802002069010D009861F341
:1019F000175000902069010E009861F31860009064
:101A00002069410E009861F3596000902069810EB1
:101A1000009861F39A600090E07C8DF803002069E3
:101A2000010F009861F31C7000902069410F00982D
:101A300061F35D7000902069810F009861F39E70E2
:101A400000902069C10F009861F3DF70009026B903
:101A500000986FF30F00009002E0009880B20090B1
:101A60000098216960F30001216100984108206914
:101A700061F34100206100988108206961F38200D0
:101A800020619DF80000207400980109206961F32D
:101A9000071020610098010A206961F30820206185
:101AA0000098410A206961F3492020610098810A69
:101AB000206961F38A2020619DF80110617400980B
:101AC000010B206961F30C3020610098410B206903
